:020000040800F2
:1000000000500020811B0008A5190008AB1900084A
:10001000B1190008B7190008BD1900080000000058
:10002000000000000000000000000000C3190008EC
:10003000CF19000800000000DB190008E7190008CC
:10004000C91B0008C91B0008C91B0008C91B000800
:10005000C91B0008C91B0008C91B0008C91B0008F0
:10006000C91B0008C91B0008C91B0008C91B0008E0
:10007000C91B0008C91B0008C91B0008C91B0008D0
:10008000C91B0008C91B0008C91B0008C91B0008C0
:10009000C91B0008C91B0008C91B0008C91B0008B0
:1000A000C91B0008C91B0008C91B0008C91B0008A0
:1000B000C91B0008C91B0008C91B0008C91B000890
:1000C000C91B0008C91B0008C91B0008C91B000880
:1000D000C91B0008C91B0008C91B0008C91B000870
:1000E000C91B0008C91B0008C91B0008000000004C
:1000F0000000000000000000000000000000000000
:0C01000000000000000000005FF808F1A3
:1001100010B5054C237833B9044B13B10448AFF341
:1001200000800123237010BDFC01002000000000AE
:10013000B472000808B5034B1BB103490348AFF381
:10014000008008BD0000000000020020B47200081A
:10015000034613F8012B002AFBD1181A0138704707
:1001600081F0004102E000BF83F0004330B54FEA68
:1001700041044FEA430594EA050F08BF90EA020FD5
:100180001FBF54EA000C55EA020C7FEA645C7FEA68
:10019000655C00F0E2804FEA5454D4EB5555B8BF8B
:1001A0006D420CDD2C4480EA020281EA030382EAFC
:1001B000000083EA010180EA020281EA0303362D8E
:1001C00088BF30BD11F0004F4FEA01314FF4801C61
:1001D0004CEA113102D0404261EB410113F0004F73
:1001E0004FEA03334CEA133302D0524263EB43032A
:1001F00094EA050F00F0A780A4F10104D5F1200EC8
:100200000DDB02FA0EFC22FA05F2801841F1000122
:1002100003FA0EF2801843FA05F359410EE0A5F1F6
:1002200020050EF1200E012A03FA0EFC28BF4CF027
:10023000020C43FA05F3C01851EBE37101F00045DD
:1002400007D54FF0000EDCF1000C7EEB00006EEBEA
:100250000101B1F5801F1BD3B1F5001F0CD3490874
:100260005FEA30004FEA3C0C04F101044FEA4452CB
:1002700012F5800F80F09A80BCF1004F08BF5FEA52
:10028000500C50F1000041EB045141EA050130BD32
:100290005FEA4C0C404141EB0101013C28BFB1F544
:1002A000801FE9D291F0000F04BF01460020B1FA8F
:1002B00081F308BF2033A3F10B03B3F120020CDA62
:1002C0000C3208DD02F1140CC2F10C0201FA0CF040
:1002D00021FA02F10CE002F11402D8BFC2F1200CA5
:1002E00001FA02F120FA0CFCDCBF41EA0C0190405B
:1002F000E41AA2BF01EB0451294330BD6FEA0404A4
:100300001F3C1CDA0C340EDC04F11404C4F120028E
:1003100020FA04F001FA02F340EA030021FA04F3A0
:1003200045EA030130BDC4F10C04C4F1200220FAF7
:1003300002F001FA04F340EA0300294630BD21FA35
:1003400004F0294630BD94F0000F83F4801306BFFB
:1003500081F480110134013D4EE77FEA645C18BFEF
:100360007FEA655C29D094EA050F08BF90EA020F86
:1003700005D054EA000C04BF1946104630BD91EA7E
:10038000030F1EBF0021002030BD5FEA545C05D181
:100390004000494128BF41F0004130BD14F58004C0
:1003A0003CBF01F5801130BD01F0004545F0FE4134
:1003B00041F470014FF0000030BD7FEA645C1ABF69
:1003C000194610467FEA655C1CBF0B46024650EAA0
:1003D000013406BF52EA033591EA030F41F40021CC
:1003E00030BD00BF90F0000F04BF0021704730B552
:1003F0004FF4806404F132044FF000054FF0000127
:1004000050E700BF90F0000F04BF0021704730B5E7
:100410004FF4806404F1320410F0004548BF4042BC
:100420004FF000013EE700BF42004FEAE2014FEA11
:1004300031014FEA02701FBF12F07F4393F07F4FEC
:1004400081F06051704732F07F4208BF704793F0EF
:100450007F4F04BF41F40021704730B54FF4607402
:1004600001F0004521F000411CE700BF50EA010205
:1004700008BF704730B54FF000050AE050EA0102AE
:1004800008BF704730B511F0004502D5404261EB1E
:1004900041014FF4806404F132045FEA915C3FF45F
:1004A000D8AE4FF003025FEADC0C18BF03325FEAFC
:1004B000DC0C18BF033202EBDC02C2F1200300FAAD
:1004C00003FC20FA02F001FA03FE40EA0E0021FAD2
:1004D00002F11444BDE600BF70B54FF0FF0C4CF4C0
:1004E000E06C1CEA11541DBF1CEA135594EA0C0F72
:1004F00095EA0C0F00F0DEF82C4481EA030621EAAD
:100500004C5123EA4C5350EA013518BF52EA0335E7
:1005100041F4801143F4801338D0A0FB02CE4FF099
:100520000005E1FB02E506F00042E0FB03E54FF0C9
:100530000006E1FB03569CF0000F18BF4EF0010EC1
:10054000A4F1FF04B6F5007F64F5407404D25FEABD
:100550004E0E6D4146EB060642EAC62141EA555170
:100560004FEAC52040EA5E504FEACE2EB4F1FD0CB2
:1005700088BFBCF5E06F1ED8BEF1004F08BF5FEA30
:10058000500E50F1000041EB045170BD06F00046E2
:1005900046EA010140EA020081EA0301B4EB5C048F
:1005A000C2BFD4EB0C0541EA045170BD41F4801187
:1005B0004FF0000E013C00F3AB8014F1360FDEBFAC
:1005C000002001F0004170BDC4F10004203C35DA88
:1005D0000C341BDC04F11404C4F1200500FA05F30B
:1005E00020FA04F001FA05F240EA020001F00042AC
:1005F00021F0004110EBD37021FA04F642EB060122
:100600005EEA430E08BF20EAD37070BDC4F10C044B
:10061000C4F1200500FA04F320FA05F001FA04F20F
:1006200040EA020001F0004110EBD37041F10001FB
:100630005EEA430E08BF20EAD37070BDC4F1200506
:1006400000FA05F24EEA020E20FA04F301FA05F26E
:1006500043EA020321FA04F001F0004121FA04F216
:1006600020EA020000EBD3705EEA430E08BF20EAE6
:10067000D37070BD94F0000F0FD101F00046400020
:1006800041EB010111F4801F08BF013CF7D041EAA2
:10069000060195F0000F18BF704703F000465200A6
:1006A00043EB030313F4801F08BF013DF7D043EA77
:1006B0000603704794EA0C0F0CEA135518BF95EA2D
:1006C0000C0F0CD050EA410618BF52EA4306D1D1B4
:1006D00081EA030101F000414FF0000070BD50EAD3
:1006E000410606BF1046194652EA430619D094EA5D
:1006F0000C0F02D150EA013613D195EA0C0F05D147
:1007000052EA03361CBF104619460AD181EA03019A
:1007100001F0004141F0FE4141F470014FF0000052
:1007200070BD41F0FE4141F4780170BD70B54FF0ED
:10073000FF0C4CF4E06C1CEA11541DBF1CEA13556D
:1007400094EA0C0F95EA0C0F00F0A7F8A4EB05044F
:1007500081EA030E52EA03354FEA013100F0888046
:100760004FEA03334FF0805545EA131343EA12630F
:100770004FEA022245EA111545EA10654FEA0026C4
:100780000EF000419D4208BF964244F1FD0404F57D
:10079000407402D25B084FEA3202B61A65EB0305D9
:1007A0005B084FEA32024FF480104FF4002CB6EB96
:1007B000020E75EB030E22BFB61A754640EA0C0016
:1007C0005B084FEA3202B6EB020E75EB030E22BF56
:1007D000B61A754640EA5C005B084FEA3202B6EB97
:1007E000020E75EB030E22BFB61A754640EA9C0056
:1007F0005B084FEA3202B6EB020E75EB030E22BF26
:10080000B61A754640EADC0055EA060E18D04FEAE3
:10081000051545EA16754FEA06164FEAC30343EA83
:1008200052734FEAC2025FEA1C1CC0D111F4801F50
:100830000BD141EA00014FF000004FF0004CB6E749
:1008400011F4801F04BF01430020B4F1FD0C88BFE8
:10085000BCF5E06F3FF6AFAEB5EB030C04BFB6EBF3
:10086000020C5FEA500C50F1000041EB045170BDE6
:100870000EF0004E4EEA113114EB5C04C2BFD4EB13
:100880000C0541EA045170BD41F480114FF0000E97
:10089000013C90E645EA060E8DE60CEA135594EA13
:1008A0000C0F08BF95EA0C0F3FF43BAF94EA0C0F16
:1008B0000AD150EA01347FF434AF95EA0C0F7FF48B
:1008C00025AF104619462CE795EA0C0F06D152EADF
:1008D00003353FF4FDAE1046194622E750EA4106C3
:1008E00018BF52EA43067FF4C5AE50EA41047FF4D4
:1008F0000DAF52EA43057FF4EBAE12E74FF0FF3C39
:1009000006E000BF4FF0010C02E000BF4FF0010C09
:100910004DF804CD4FEA410C7FEA6C5C4FEA430C82
:1009200018BF7FEA6C5C1BD001B050EA410C0CBFD1
:1009300052EA430C91EA030F02BF90EA020F002033
:10094000704710F1000F91EA030F58BF994208BF9A
:1009500090422CBFD8176FEAE37040F00100704757
:100960004FEA410C7FEA6C5C02D150EA013C07D1AE
:100970004FEA430C7FEA6C5CD6D152EA033CD3D0F9
:100980005DF8040B704700BF8446104662468C46F3
:100990001946634600E000BF01B5FFF7B7FF002826
:1009A00048BF10F1000F01BD4DF808EDFFF7F4FF4F
:1009B0000CBF012000205DF808FB00BF4DF808EDDA
:1009C000FFF7EAFF34BF012000205DF808FB00BFFD
:1009D0004DF808EDFFF7E0FF94BF012000205DF81F
:1009E00008FB00BF4DF808EDFFF7CEFF94BF0120D4
:1009F00000205DF808FB00BF4DF808EDFFF7C4FFCD
:100A000034BF012000205DF808FB00BF4FEA410C15
:100A10007FEA6C5C02D150EA013C0AD14FEA430CF8
:100A20007FEA6C5C02D152EA033C02D14FF0000035
:100A300070474FF0010070474FEA410212F5001273
:100A400015D211D56FF47873B3EB625212D94FEA15
:100A5000C12343F0004343EA505311F0004F23FAFF
:100A600002F018BF404270474FF00000704750EA54
:100A7000013005D111F0004008BF6FF00040704711
:100A80004FF00000704700BF80F0004002E000BF60
:100A900081F0004142001FBF5FEA410392EA030F69
:100AA0007FEA226C7FEA236C6AD04FEA1262D2EBB3
:100AB0001363C1BFD218414048404140B8BF5B42B8
:100AC000192B88BF704710F0004F40F4000020F051
:100AD0007F4018BF404211F0004F41F4000121F067
:100AE0007F4118BF494292EA030F3FD0A2F10102B1
:100AF00041FA03FC10EB0C00C3F1200301FA03F1EF
:100B000000F0004302D5494260EB4000B0F5000F11
:100B100013D3B0F1807F06D340084FEA310102F1D0
:100B20000102FE2A51D2B1F1004F40EBC25008BF82
:100B300020F0010040EA03007047490040EB00004C
:100B4000013A28BFB0F5000FEDD2B0FA80FCACF14D
:100B5000080CB2EB0C0200FA0CF0AABF00EBC2507A
:100B600052421843BCBFD0401843704792F0000F68
:100B700081F4000106BF80F400000132013BB5E7BB
:100B80004FEA41037FEA226C18BF7FEA236C21D031
:100B900092EA030F04D092F0000F08BF0846704796
:100BA00090EA010F1CBF0020704712F07F4F04D164
:100BB000400028BF40F00040704712F100723CBF77
:100BC00000F50000704700F0004343F0FE4040F4A1
:100BD000000070477FEA226216BF08467FEA23635F
:100BE0000146420206BF5FEA412390EA010F40F44A
:100BF000800070474FF0000304E000BF10F0004396
:100C000048BF40425FEA000C08BF704743F096437C
:100C100001464FF000001CE050EA010208BF704797
:100C20004FF000030AE000BF50EA010208BF70471E
:100C300011F0004302D5404261EB41015FEA010C33
:100C400002BF84460146002043F0B64308BFA3F12B
:100C50008053A3F50003BCFA8CF2083AA3EBC2530D
:100C600010DB01FA02FC634400FA02FCC2F120022C
:100C7000BCF1004F20FA02F243EB020008BF20F063
:100C80000100704702F1200201FA02FCC2F12002C9
:100C900050EA4C0021FA02F243EB020008BF20EABE
:100CA000DC7070474FF0FF0C1CEAD0521EBF1CEAEC
:100CB000D15392EA0C0F93EA0C0F6FD01A4480EADA
:100CC000010C400218BF5FEA41211ED04FF00063C3
:100CD00043EA501043EA5111A0FB01310CF00040EF
:100CE000B1F5000F3EBF490041EAD3715B0040EA15
:100CF000010062F17F02FD2A1DD8B3F1004F40EBE5
:100D0000C25008BF20F00100704790F0000F0CF0B7
:100D1000004C08BF49024CEA502040EA51207F3A7B
:100D2000C2BFD2F1FF0340EAC250704740F4000056
:100D30004FF00003013A5DDC12F1190FDCBF00F047
:100D400000407047C2F10002410021FA02F1C2F1F5
:100D5000200200FA02FC5FEA310040F1000053EA91
:100D60004C0308BF20EADC70704792F0000F00F0DF
:100D7000004C02BF400010F4000F013AF9D040EAE5
:100D80000C0093F0000F01F0004C02BF490011F479
:100D9000000F013BF9D041EA0C018FE70CEAD15377
:100DA00092EA0C0F18BF93EA0C0F0AD030F0004CF7
:100DB00018BF31F0004CD8D180EA010000F00040AB
:100DC000704790F0000F17BF90F0004F084691F069
:100DD000000F91F0004F14D092EA0C0F01D14202A3
:100DE0000FD193EA0C0F03D14B0218BF084608D16C
:100DF00080EA010000F0004040F0FE4040F40000B6
:100E0000704740F0FE4040F4400070474FF0FF0C48
:100E10001CEAD0521EBF1CEAD15392EA0C0F93EA8F
:100E20000C0F69D0A2EB030280EA010C49024FEAE1
:100E3000402037D04FF0805343EA111143EA10139A
:100E40000CF000408B4238BF5B0042F17D024FF452
:100E5000000C8B4224BF5B1A40EA0C00B3EB510F2D
:100E600024BFA3EB510340EA5C00B3EB910F24BF16
:100E7000A3EB910340EA9C00B3EBD10F24BFA3EB9B
:100E8000D10340EADC001B0118BF5FEA1C1CE0D163
:100E9000FD2A3FF650AF8B4240EBC25008BF20F016
:100EA000010070470CF0004C4CEA50207F32C2BF6A
:100EB000D2F1FF0340EAC250704740F400004FF007
:100EC0000003013A37E792F0000F00F0004C02BF38
:100ED000400010F4000F013AF9D040EA0C0093F002
:100EE000000F01F0004C02BF490011F4000F013B5C
:100EF000F9D041EA0C0195E70CEAD15392EA0C0FC4
:100F000008D142027FF47DAF93EA0C0F7FF470AFFB
:100F1000084676E793EA0C0F04D14B023FF44CAF3E
:100F200008466EE730F0004C18BF31F0004CCAD1D3
:100F300030F000427FF45CAF31F000437FF43CAF0F
:100F40005FE700BF4FEA4002B2F1FE4F0FD34FF010
:100F50009E03B3EB12620DD94FEA002343F0004326
:100F600010F0004F23FA02F018BF404270474FF0D4
:100F70000000704712F1610F01D1420205D110F05B
:100F8000004008BF6FF0004070474FF0000070470E
:100F900080B588B004AF78600B46FB701346BB7019
:100FA0000023FB734FF0FF3302930123019307F1FA
:100FB0000F03009301236B22D021084801F0BAFDF2
:100FC000FB781946786800F00BF8BB78194678680A
:100FD00000F056F800BF1037BD4680BD1802002053
:100FE00080B588B004AF78600B46FB70FB78DB00FF
:100FF000DBB2BB734FF47A7302930123019307F1C1
:101000000E03009301231B22D021184801F092FD0A
:101010000346FB73FB7B002B01D0002321E0FB7810
:10102000032B1BD801A252F823F000BF3D1000088B
:10103000451000084D100008551000087B680C4A48
:101040005A620DE07B680B4A5A6209E07B680A4AE3
:101050005A6205E07B68094A5A6201E0002300E019
:10106000012318461037BD4680BD00BF180200207E
:101070000000034300008342333303423333834190
:1010800080B588B004AF78600B46FB70FB78DB005E
:10109000DBB2BB734FF47A7302930123019307F120
:1010A0000E03009301231C22D021184801F042FDB9
:1010B0000346FB73FB7B002B01D0002321E0FB7870
:1010C000032B1BD801A252F823F000BFDD1000084B
:1010D000E5100008ED100008F51000087B680C4AC8
:1010E0009A620DE07B680B4A9A6209E07B680A4AC3
:1010F0009A6205E07B68094A9A6201E0002300E0F9
:10110000012318461037BD4680BD00BF18020020DD
:101110006F1283416F1203416F1283406F120340BD
:1011200080B58AB002AF78603B23FB7307F10F02F2
:101130004FF47A7300930123D021564801F090F9BF
:1011400007F110024FF47A7300930E23D021514817
:1011500001F084FA3B7C1B021AB27B7C1BB2134366
:101160001AB27B681A83BB7C1B021AB2FB7C1BB2CF
:1011700013431AB27B685A833B7D1B021AB27B7DF4
:101180001BB213431AB27B689A833B7E1B021AB2CE
:101190007B7E1BB213431AB27B68DA83BB7E1B02D1
:1011A0001AB2FB7E1BB213431AB27B681A843B7FD0
:1011B0001B021AB27B7F1BB213431AB27B685A849C
:1011C0007B68B3F918301846FFF718FD02467B68B4
:1011D0009B6A19461046FFF719FE03461A467B68BC
:1011E0001A607B68B3F91A301846FFF707FD02460C
:1011F0007B689B6A19461046FFF708FE03461A46AD
:101200007B685A607B68B3F91C301846FFF7F6FC20
:1012100002467B689B6A19461046FFF7F7FD0346B6
:101220001A467B689A607B68B3F91E301846FFF750
:10123000E5FC02467B685B6A19461046FFF7E6FD4F
:1012400003461A467B68DA607B68B3F9203018469B
:10125000FFF7D4FC02467B685B6A19461046FFF72D
:10126000D5FD03461A467B681A617B68B3F92230C4
:101270001846FFF7C3FC02467B685B6A19461046B6
:10128000FFF7C4FD03461A467B685A6100BF20374A
:10129000BD4680BD1802002080B582B000AF01239A
:1012A0007B6008E07B68DBB20021184600F026F87E
:1012B0007B6801337B607B68082BF3DD00BF00BFD8
:1012C0000837BD4680BD80B500AF0021092000F081
:1012D00015F803210A2000F011F807210B2000F077
:1012E0000DF801210C2000F009F800210F2000F07A
:1012F00005F8FFF7D1FF0123184680BD80B584B003
:1013000000AF03460A46FB711346BB710022402121
:10131000134800F049FFF91D64230122114802F02F
:10132000B3FD0346FB73FB7B002B13D1B91D642374
:1013300001220C4802F0A8FD0346FB73FB7B002B47
:1013400006D101224021064800F02EFF012302E0D1
:10135000002300E0FB7B18461037BD4680BD00BF70
:10136000000801406C020020B0B588B002AF00F068
:101370002DFC00F0F9F800F0CBF900F03BF900F09B
:101380009DF900F065F9FFF79EFF012201216648F3
:10139000FFF7FEFD6448FFF7C3FE634B1B68634A1B
:1013A0001360614B5B68624A13605F4B9B68614AE4
:1013B00013605D4BDB68604A13605B4B1B695F4ADF
:1013C0001360594B5B695E4A1360584B1B681846A3
:1013D000FFF72AF804460D46554B1B681846FFF7E1
:1013E00023F802460B46CDE9002322462B465549F9
:1013F000554803F011FE0346DAB2544B1A70534BB2
:101400001B789AB20A235049514802F077FF484BA3
:101410001B681846FFF796FD0346B3F5C87F13DD3A
:1014200001237B610CE07B69DAB27B69013B4949AE
:10143000CB5C19461046FFF761FF7B6901337B6186
:101440007B69082BEFDD69E0394B1B681846FFF715
:1014500079FD034613F5C87F13DA01233B610CE0E5
:101460003B69DAB23B69013B3B49CB5C194610460C
:10147000FFF744FF3B6901333B613B69082BEFDD1C
:101480004CE02A4B1B681846FFF75CFD0346B3F59A
:10149000C87F13DD0123FB600CE0FB68DAB2FB6858
:1014A000013B2E49CB5C19461046FFF727FFFB682E
:1014B0000133FB60FB68082BEFDD2FE01B4B1B6843
:1014C0001846FFF73FFD034613F5C87F13DA0123E3
:1014D000BB600CE0BB68DAB2BB68013B2049CB5C67
:1014E00019461046FFF70AFFBB680133BB60BB68B3
:1014F000082BEFDD12E001237B600CE07B68DAB2A1
:101500007B68013B1749CB5C19461046FFF7F6FE96
:101510007B6801337B607B68082BEFDD4FF49670AE
:1015200000F0B6FB36E700BF0C03002038030020B4
:101530003C03002040030020440300204803002017
:101540004C030020D072000850030020B403002098
:10155000C402002008000020000000201800002025
:10156000200000201000002080B590B000AF07F1EF
:10157000180328220021184603F0B1FD3B1D00226C
:101580001A605A609A60DA601A610123BB614FF4F5
:101590008033FB6100233B620123BB6202237B6338
:1015A0004FF48033BB634FF4E013FB6307F1180380
:1015B000184601F0D5FF0346002B01D000F0F2F8E9
:1015C0000F237B600223BB600023FB604FF480632A
:1015D0003B6100237B613B1D0221184602F042FA69
:1015E0000346002B01D000F0DDF800BF4037BD46B8
:1015F00080BD000080B500AF124B134A1A60114B3A
:10160000124A5A600F4B00229A600E4B0022DA6099
:101610000C4B4FF480421A610A4B00225A61094B6D
:1016200000229A61074B0022DA61064B00221A62FF
:10163000044800F0D1FD0346002B01D000F0B2F8C1
:1016400000BF80BD1802002000540040A0860100A9
:1016500080B500AF174B184A1A60164B4FF48272D0
:101660005A60144B00229A60124B0022DA60114B30
:1016700000221A610F4B00225A610E4B4FF4007288
:101680009A610C4B1022DA610A4B00221A62094B54
:1016900000225A62074B00229A62064B0A22DA6243
:1016A000044802F06DFB0346002B01D000F07AF8ED
:1016B00000BF80BD6C0200200030014080B500AF4B
:1016C000114B124A1A60104B4FF4E1325A600E4B24
:1016D00000229A600C4B0022DA600B4B00221A6148
:1016E000094B0C225A61084B00229A61064B0022DA
:1016F000DA61054802F0B2FD0346002B01D000F08C
:1017000051F800BF80BD00BFC40200200038014076
:1017100080B588B000AF07F1100300221A605A604C
:101720009A60DA601D4B9B691C4A43F02003936169
:101730001A4B9B6903F02003FB60FB68174B9B6906
:10174000164A43F004039361144B9B6903F00403AE
:10175000BB60BB68114B9B69104A43F0080393615F
:101760000E4B9B6903F008037B607B6800224021DD
:101770000B4800F019FD40233B6101237B610023EE
:10178000BB610223FB6107F110031946044800F016
:1017900087FB00BF2037BD4680BD00BF0010024060
:1017A0000008014080B400AF72B600BFFEE7000041
:1017B00080B485B000AF154B9B69144A43F0010318
:1017C0009361124B9B6903F00103BB60BB680F4B35
:1017D000DB690E4A43F08053D3610C4BDB6903F0A5
:1017E00080537B607B680A4B5B68FB60FB6823F07F
:1017F000E063FB60FB6843F00073FB60044AFB6836
:10180000536000BF1437BD4680BC704700100240D3
:101810000000014080B588B000AF786007F1100388
:1018200000221A605A609A60DA607B681B68154A69
:10183000934223D1144B9B69134A43F008039361ED
:10184000114B9B6903F00803FB60FB68C0233B61FD
:1018500012237B610323FB6107F1100319460B4838
:1018600000F01EFB084BDB69074A43F40013D36109
:10187000054BDB6903F40013BB60BB6800BF203776
:10188000BD4680BD0054004000100240000C0140E5
:1018900080B588B000AF786007F1100300221A60AD
:1018A0005A609A60DA607B681B68154A934223D1BC
:1018B000144B9B69134A43F480539361114B9B690A
:1018C00003F48053FB60FB680E4B9B690D4A43F0A9
:1018D000040393610B4B9B6903F00403BB60BB687B
:1018E000A0233B6102237B610323FB6107F110030B
:1018F0001946054800F0D4FA00BF2037BD4680BD28
:1019000000300140001002400008014080B588B05E
:1019100000AF786007F1100300221A605A609A60E5
:10192000DA607B681B681C4A934231D11B4B9B6970
:101930001A4A43F480439361184B9B6903F4804334
:10194000FB60FB68154B9B69144A43F004039361E9
:10195000124B9B6903F00403BB60BB684FF4007338
:101960003B6102237B610323FB6107F110031946EE
:101970000B4800F095FA4FF480633B6100237B61D4
:101980000023BB6107F110031946054800F088FAEF
:1019900000BF2037BD4680BD003801400010024026
:1019A0000008014080B400AFFEE780B400AFFEE75E
:1019B00080B400AFFEE780B400AFFEE780B400AFB4
:1019C000FEE780B400AF00BFBD4680BC704780B466
:1019D00000AF00BFBD4680BC704780B400AF00BF01
:1019E000BD4680BC704780B500AF00F035F900BF40
:1019F00080BD80B400AF01231846BD4680BC70474F
:101A000080B582B000AF7860396003F0BBFB03465D
:101A100016221A604FF0FF3318460837BD4680BDC6
:101A200080B582B000AF78604FF0FF317868FFF783
:101A3000E7FFFEE780B586B000AFF860B9607A6076
:101A400000237B610AE0AFF300800146BB685A1CAB
:101A5000BA60CAB21A707B6901337B617A697B68AC
:101A60009A42F0DB7B6818461837BD4680BD80B5CA
:101A700086B000AFF860B9607A6000237B6109E04E
:101A8000BB685A1CBA601B781846AFF300807B69AC
:101A900001337B617A697B689A42F1DB7B68184687
:101AA0001837BD4680BD80B483B000AF78604FF07A
:101AB000FF3318460C37BD4680BC704780B483B0F6
:101AC00000AF786039603B684FF400525A600023E1
:101AD00018460C37BD4680BC704780B483B000AF59
:101AE0007860012318460C37BD4680BC704780B42F
:101AF00085B000AFF860B9607A60002318461437EB
:101B0000BD4680BC7047000080B586B000AF7860ED
:101B1000144A154BD31A7B617B693B61134B1B68DD
:101B2000002B02D1114B124A1A60104B1A687B68C5
:101B300013443A699A4207D203F024FB03460C226D
:101B40001A604FF0FF3309E0084B1B68FB60074B3E
:101B50001A687B681344054A1360FB6818461837F7
:101B6000BD4680BD0050002000040000B8030020E6
:101B70001005002080B400AF00BFBD4680BC704798
:101B8000FFF7F8FF0B480C490C4A002302E0D45839
:101B9000C4500433C4188C42F9D3094A094C0023B9
:101BA00001E013600432A242FBD303F0F1FAFFF725
:101BB000DBFB704700000020FC0100208476000859
:101BC000FC0100200C050020FEE7000080B500AFFE
:101BD000084B1B68074A43F010031360032000F012
:101BE0002BF90F2000F008F8FFF7E2FD002318465C
:101BF00080BD00BF0020024080B582B000AF786099
:101C0000124B1A68124B1B7819464FF47A73B3FBC8
:101C1000F1F3B2FBF3F3184600F035F90346002B5D
:101C200001D001230EE07B680F2B0AD800227968CF
:101C30004FF0FF3000F00BF9064A7B681360002379
:101C400000E0012318460837BD4680BD280000206B
:101C5000300000202C00002080B400AF054B1B7822
:101C60001A46054B1B681344034A136000BFBD4668
:101C700080BC704730000020BC03002080B400AF5F
:101C8000024B1B681846BD4680BC7047BC03002051
:101C900080B584B000AF7860FFF7F0FFB8607B6874
:101CA000FB60FB68B3F1FF3F05D00A4B1B781A4677
:101CB000FB681344FB6000BFFFF7E0FF0246BB6810
:101CC000D31AFA689A42F7D800BF00BF1037BD4652
:101CD00080BD00BF3000002080B485B000AF7860C8
:101CE0007B6803F00703FB600C4BDB68BB60BA68E2
:101CF0004FF6FF031340BB60FB681A02BB68134337
:101D000043F0BF6343F40033BB60044ABB68D36055
:101D100000BF1437BD4680BC704700BF00ED00E037
:101D200080B400AF044BDB681B0A03F007031846BE
:101D3000BD4680BC704700BF00ED00E080B483B0BA
:101D400000AF03463960FB7197F90730002B0ADBBF
:101D50003B68DAB20C4997F907301201D2B20B4452
:101D600083F800230AE03B68DAB20849FB7903F004
:101D70000F03043B1201D2B20B441A7600BF0C379A
:101D8000BD4680BC704700BF00E100E000ED00E010
:101D900080B489B000AFF860B9607A60FB6803F086
:101DA0000703FB61FB69C3F10703042B28BF04236E
:101DB000BB61FB690433062B02D9FB69033B00E0DE
:101DC00000237B614FF0FF32BB6902FA03F3DA4371
:101DD000BB681A407B699A404FF0FF317B6901FA7A
:101DE00003F3D9437B680B40134318462437BD46A1
:101DF00080BC704780B582B000AF78607B68013BE3
:101E0000B3F1807F01D301230FE00A4A7B68013BD5
:101E100053600F214FF0FF30FFF790FF054B00227A
:101E20009A60044B07221A60002318460837BD4603
:101E300080BD00BF10E000E080B582B000AF7860E8
:101E40007868FFF749FF00BF0837BD4680BD80B501
:101E500086B000AF0346B9607A60FB7300237B61F4
:101E6000FFF75EFF78617A68B9687869FFF790FFDD
:101E7000024697F90F3011461846FFF75FFF00BF83
:101E80001837BD4680BD80B582B000AF78607868F5
:101E9000FFF7B0FF034618460837BD4680BD000077
:101EA00080B48BB000AF7860396000237B62002380
:101EB0003B6269E101227B6A02FA03F3FB613B6842
:101EC0001B68FA691340BB61BA69FB699A4240F02A
:101ED00058813B685B689A4A93425ED0984A934225
:101EE00075D8984A934258D0964A93426FD8964AEA
:101EF000934252D0944A934269D8944A93424CD028
:101F0000924A934263D8924A934246D0904A93426F
:101F10005DD8122B2AD8122B59D801A252F823F0DF
:101F20009B1F0008751F0008871F0008C91F0008B5
:101F3000CF1F0008CF1F0008CF1F0008CF1F0008C9
:101F4000CF1F0008CF1F0008CF1F0008CF1F0008B9
:101F5000CF1F0008CF1F0008CF1F0008CF1F0008A9
:101F6000CF1F00087D1F0008911F0008794A934287
:101F700013D02CE03B68DB683B6229E03B68DB6800
:101F800004333B6224E03B68DB6808333B621FE0BC
:101F90003B68DB680C333B621AE03B689B68002BB4
:101FA00002D104233B6213E03B689B68012B05D1FF
:101FB00008233B627B68FA691A6109E008233B62E7
:101FC0007B68FA695A6103E000233B6200E000BFCE
:101FD000BB69FF2B01D87B6801E07B6804337B6120
:101FE000BB69FF2B02D87B6A9B0002E07B6A083B3F
:101FF0009B003B617B691A680F213B6901FA03F37F
:10200000DB431A40396A3B6901FA03F31A437B69DF
:102010001A603B685B6803F08053002B00F0B180CE
:102020004D4B9B694C4A43F0010393614A4B9B69BA
:1020300003F00103BB60BB68484A7B6A9B0802331C
:1020400052F82330FB607B6A03F003039B000F22EE
:1020500002FA03F3DB43FA681340FB607B68404AF3
:10206000934213D07B683F4A93420DD07B683E4A2F
:10207000934207D07B683D4A934201D1032306E097
:10208000042304E0022302E0012300E000237A6A33
:1020900002F0030292009340FA681343FB602F4959
:1020A0007B6A9B080233FA6841F823203B685B682F
:1020B00003F48013002B06D02D4B9A682C49BB6982
:1020C00013438B6006E02A4B9A68BB69DB432849BF
:1020D00013408B603B685B6803F40013002B06D051
:1020E000234BDA682249BB691343CB6006E0204BDF
:1020F000DA68BB69DB431E491340CB603B685B6811
:1021000003F40033002B06D0194B5A681849BB69F9
:1021100013434B6006E0164B5A68BB69DB43144916
:1021200013404B603B685B6803F48033002B21D085
:102130000F4B1A680E49BB6913430B6021E000BFC7
:1021400000003210000031100000221000002110A9
:1021500000001210000011100010024000000140A9
:1021600000080140000C0140001001400014014033
:10217000000401400B4B1A68BB69DB43094913405B
:102180000B607B6A01337B623B681A687B6A22FAC8
:1021900003F3002B7FF48EAE00BF00BF2C37BD468B
:1021A00080BC70470004014080B483B000AF786009
:1021B0000B467B8013467B707B78002B03D07A889C
:1021C0007B681A6103E07B881A047B681A6100BF90
:1021D0000C37BD4680BC704780B584B000AF7860D6
:1021E0007B68002B01D101232BE17B6893F83D3004
:1021F000DBB2002B06D17B68002283F83C20786894
:10220000FFF708FB7B68242283F83D207B681B686E
:102210001A687B681B6822F001021A607B681B68E1
:102220001A687B681B6842F400421A607B681B686E
:102230001A687B681B6822F400421A6001F05AFD9C
:10224000F8607B685B68814A934207D8FB68804AE4
:10225000934294BF01230023DBB206E0FB687D4A72
:10226000934294BF01230023DBB2002B01D0012352
:10227000E7E0FB68784AA2FB03239B0CBB607B680A
:102280001B685B6823F03F017B681B68BA680A43E0
:102290005A607B681B681B6A23F03F017B685B68A0
:1022A0006A4A934202D8BB68013309E0BB684FF425
:1022B000967202FB03F3694AA2FB03239B090133D5
:1022C0007A6812680B4313627B681B68DB6923F42E
:1022D0004F4222F0FF027B685B685C498B4219D851
:1022E000FB68591E7B685B685B00B1FBF3F3591C0C
:1022F00040F6FC730B40002B0AD0FB68591E7B682C
:102300005B685B00B1FBF3F30133C3F30B0351E0F4
:1023100004234FE07B689B68002B11D1FB68581E9B
:102320007B6859680B465B000B44B0FBF3F3013349
:10233000C3F30B03002B0CBF01230023DBB212E01D
:10234000FB68581E7B6859680B469B000B4499003C
:102350000B44B0FBF3F30133C3F30B03002B0CBFAF
:1023600001230023DBB2002B01D0012322E07B6894
:102370009B68002B0ED1FB68581E7B6859680B4682
:102380005B000B44B0FBF3F30133C3F30B0343F4E3
:1023900000430FE0FB68581E7B6859680B469B00A2
:1023A0000B4499000B44B0FBF3F30133C3F30B036D
:1023B00043F44043796809681343CB617B681B6829
:1023C0001B6823F0C0017B68DA697B681B6A1A43CB
:1023D0007B681B680A431A607B681B689B6823F450
:1023E000034323F0FF037A6811697A68D2681143C6
:1023F0007A6812680B4393607B681B68DB6823F084
:10240000FF017B685A697B689B691A437B681B687C
:102410000A43DA607B681B681A687B681B6842F0B5
:1024200001021A607B6800221A647B68202283F80C
:102430003D207B6800221A637B68002283F83E20DF
:10244000002318461037BD4680BD00BFA08601009E
:102450007F841E00FF083D0083DE1B43D34D6210C6
:1024600080B588B002AFF8607A601A460B467B816F
:1024700013463B81FFF702FC7861FB6893F83D301F
:10248000DBB2202B40F0E0807B690093192301220E
:102490007049F86800F02EFE0346002B01D002239D
:1024A000D3E0FB6893F83C30012B01D10223CCE050
:1024B000FB68012283F83C20FB681B681B6803F063
:1024C0000103012B07D0FB681B681A68FB681B68B7
:1024D00042F001021A60FB681B681A68FB681B68FF
:1024E00022F400621A60FB68212283F83D20FB6819
:1024F000102283F83E20FB6800221A64FB687A6889
:102500005A62FB683A895A85FB685B8D9AB2FB6810
:102510001A85FB68504ADA6279897B693A6AF868F9
:1025200000F002FC0346002B01D001238DE00023C4
:102530003B61FB681B685B693B61FB681B689B69CF
:102540003B613B6966E07A69396AF86800F0ECFE45
:102550000346002B0DD0FB681B6C042B07D1FB68D6
:102560001B681A68FB681B6842F400721A6001233A
:102570006BE0FB685B6A1A78FB681B681A61FB6892
:102580005B6A5A1CFB685A62FB685B8D9BB2013B1D
:102590009AB2FB685A85FB681B8D013B9AB2FB68B7
:1025A0001A85FB681B685B6903F00403042B1BD1CD
:1025B000FB681B8D002B17D0FB685B6A1A78FB68E1
:1025C0001B681A61FB685B6A5A1CFB685A62FB68ED
:1025D0005B8D9BB2013B9AB2FB685A85FB681B8DF1
:1025E000013B9AB2FB681A857A69396AF86800F08B
:1025F000E3FE0346002B0DD0FB681B6C042B07D1B8
:10260000FB681B681A68FB681B6842F400721A605A
:1026100001231AE0FB681B8D002B94D1FB681B681B
:102620001A68FB681B6842F400721A60FB6820227B
:1026300083F83D20FB68002283F83E20FB680022DF
:1026400083F83C20002300E0022318461837BD46DB
:1026500080BD00BF020010000000FFFF80B58CB0FD
:1026600002AFF8607A601A460B467B8113463B81C5
:1026700000233B62FFF702FB7862FB6893F83D3072
:10268000DBB2202B40F04B827B6A0093192301229E
:102690007F49F86800F02EFD0346002B01D002238D
:1026A0003EE2FB6893F83C30012B01D1022337E274
:1026B000FB68012283F83C20FB681B681B6803F061
:1026C0000103012B07D0FB681B681A68FB681B68B5
:1026D00042F001021A60FB681B681A68FB681B68FD
:1026E00022F400621A60FB68222283F83D20FB6816
:1026F000102283F83E20FB6800221A64FB687A6887
:102700005A62FB683A895A85FB685B8D9AB2FB680E
:102710001A85FB685F4ADA6279897B6A3A6BF868E6
:1027200000F084FB0346002B01D00123F8E1FB6895
:102730001B8D002B13D10023FB61FB681B685B69B9
:10274000FB61FB681B689B69FB61FB69FB681B689D
:102750001A68FB681B6842F400721A60CCE1FB68DF
:102760001B8D012B1ED1FB681B681A68FB681B6858
:1027700022F480621A6072B600BF0023BB61FB685E
:102780001B685B69BB61FB681B689B69BB61BB69BC
:10279000FB681B681A68FB681B6842F400721A60C9
:1027A00062B635E0FB681B8D022B1ED1FB681B68EF
:1027B0001A68FB681B6842F400621A6072B600BFB8
:1027C00000237B61FB681B685B697B61FB681B689E
:1027D0009B697B617B69FB681B681A68FB681B68E7
:1027E00022F480621A6062B612E0FB681B681A6805
:1027F000FB681B6842F480621A6000233B61FB683F
:102800001B685B693B61FB681B689B693B613B69BB
:1028100072E1FB681B8D032B00F21F81FB681B8D8F
:10282000012B23D17A6A396BF86800F00DFE03465C
:10283000002B01D0012373E1FB681B681A69FB6858
:102840005B6AD2B21A70FB685B6A5A1CFB685A62F8
:10285000FB681B8D013B9AB2FB681A85FB685B8D98
:102860009BB2013B9AB2FB685A8545E1FB681B8D20
:10287000022B52D17B6A00933B6B00220649F86819
:1028800000F038FC0346002B08D0012348E100BFCC
:10289000020010000000FFFF0400010072B600BF3C
:1028A000FB681B681A68FB681B6842F400721A60B8
:1028B000FB681B681A69FB685B6AD2B21A70FB6816
:1028C0005B6A5A1CFB685A62FB681B8D013B9AB21B
:1028D000FB681A85FB685B8D9BB2013B9AB2FB6873
:1028E0005A8562B600BFFB681B681A69FB685B6AA1
:1028F000D2B21A70FB685B6A5A1CFB685A62FB68AA
:102900001B8D013B9AB2FB681A85FB685B8D9BB2FD
:10291000013B9AB2FB685A85EEE07B6A00933B6B01
:1029200000228149F86800F0E5FB0346002B01D046
:102930000123F5E0FB681B681A68FB681B6822F43A
:1029400080621A6072B600BFFB681B681A69FB6878
:102950005B6AD2B21A70FB685B6A5A1CFB685A62E7
:10296000FB681B8D013B9AB2FB681A85FB685B8D87
:102970009BB2013B9AB2FB685A856C4B1B68DB0823
:102980006B4AA2FB03231A0A13469B001344DA0086
:10299000D31A3B623B6A013B3B623B6A002B18D176
:1029A000FB6800221A63FB68202283F83D20FB6845
:1029B000002283F83E20FB681B6C43F02002FB687A
:1029C0001A6462B600BFFB68002283F83C20012332
:1029D000A6E0FB681B685B6903F00403042BD9D1F4
:1029E000FB681B681A68FB681B6842F400721A6077
:1029F000FB681B681A69FB685B6AD2B21A70FB68D5
:102A00005B6A5A1CFB685A62FB681B8D013B9AB2D9
:102A1000FB681A85FB685B8D9BB2013B9AB2FB6831
:102A20005A8562B600BFFB681B681A69FB685B6A5F
:102A3000D2B21A70FB685B6A5A1CFB685A62FB6868
:102A40001B8D013B9AB2FB681A85FB685B8D9BB2BC
:102A5000013B9AB2FB685A854EE07A6A396BF86896
:102A600000F0F2FC0346002B01D0012358E0FB6884
:102A70001B681A69FB685B6AD2B21A70FB685B6AF2
:102A80005A1CFB685A62FB681B8D013B9AB2FB68BB
:102A90001A85FB685B8D9BB2013B9AB2FB685A8535
:102AA000FB681B685B6903F00403042B24D1FB68FB
:102AB0001B8D032B07D1FB681B681A68FB681B681A
:102AC00022F480621A60FB681B681A69FB685B6A03
:102AD000D2B21A70FB685B6A5A1CFB685A62FB68C8
:102AE0001B8D013B9AB2FB681A85FB685B8D9BB21C
:102AF000013B9AB2FB685A85FB681B8D002B7FF463
:102B000088AEFB68202283F83D20FB68002283F812
:102B10003E20FB68002283F83C20002300E00223D3
:102B200018462837BD4680BD04000100280000205B
:102B300089B5F81480B588B002AFF8600846114630
:102B40001A4603467B810B463B811346FB80FFF709
:102B500095F87861FB6893F83D30DBB2202B40F0AC
:102B6000D9807B690093192301226D49F86800F030
:102B7000C1FA0346002B01D00223CCE0FB6893F896
:102B80003C30012B01D10223C5E0FB68012283F810
:102B90003C20FB681B681B6803F00103012B07D076
:102BA000FB681B681A68FB681B6842F001021A6028
:102BB000FB681B681A68FB681B6822F400621A60D5
:102BC000FB68212283F83D20FB68402283F83E20E9
:102BD000FB6800221A64FB683A6A5A62FB68BA8C86
:102BE0005A85FB685B8D9AB2FB681A85FB684D4A73
:102BF000DA62F8883A8979897B690193BB6A009324
:102C00000346F86800F0E0F90346002B52D0012398
:102C100081E07A69B96AF86800F086FB0346002B08
:102C20000DD0FB681B6C042B07D1FB681B681A686E
:102C3000FB681B6842F400721A6001236BE0FB68BA
:102C40005B6A1A78FB681B681A61FB685B6A5A1C2E
:102C5000FB685A62FB681B8D013B9AB2FB681A85C0
:102C6000FB685B8D9BB2013B9AB2FB685A85FB689F
:102C70001B685B6903F00403042B1BD1FB681B8DED
:102C8000002B17D0FB685B6A1A78FB681B681A6117
:102C9000FB685B6A5A1CFB685A62FB681B8D013B30
:102CA0009AB2FB681A85FB685B8D9BB2013B9AB2B6
:102CB000FB685A85FB681B8D002BAAD17A69B96A1B
:102CC000F86800F079FB0346002B0DD0FB681B6C05
:102CD000042B07D1FB681B681A68FB681B6842F469
:102CE00000721A60012316E0FB681B681A68FB6813
:102CF0001B6842F400721A60FB68202283F83D20B2
:102D0000FB68002283F83E20FB68002283F83C2009
:102D1000002300E0022318461837BD4680BD00BFDF
:102D2000020010000000FFFF80B588B002AFF8601D
:102D30007A603B600B467B81FB68DB6A7B617B6969
:102D4000082B06D07B69012B03D07B6913F5803FEC
:102D500008D1FB681B681A68FB681B6842F4807224
:102D60001A600BE0FB681B6B122B07D1FB681B681A
:102D70001A68FB681B6842F480721A603B68009313
:102D80007B6800224FF00111F86800F0B3F90346A8
:102D9000002B0DD0FB681B681B6803F48073B3F530
:102DA000807F03D1FB684FF400721A64032335E07F
:102DB000FB681B69B3F5804F08D17B89DBB21A46EB
:102DC000FB681B6802F0FE021A611BE07B89DB11C5
:102DD000DBB203F00603DBB263F00F03DAB2FB6889
:102DE0001B681A613B687A680E49F86800F0FCF9C4
:102DF0000346002B01D0012310E07B89DAB2FB6887
:102E00001B681A613B687A680749F86800F0ECF9BA
:102E10000346002B01D0012300E000231846183799
:102E2000BD4680BD080001000200010080B588B0E9
:102E300002AFF8607A603B600B467B81FB68DB6A1F
:102E40007B61FB681B681A68FB681B6842F4806240
:102E50001A607B69082B06D07B69012B03D07B6944
:102E600013F5803F08D1FB681B681A68FB681B6874
:102E700042F480721A600BE0FB681B6B112B07D1C8
:102E8000FB681B681A68FB681B6842F480721A6052
:102E90003B6800937B6800224FF00111F86800F056
:102EA00029F90346002B0DD0FB681B681B6803F44F
:102EB0008073B3F5807F03D1FB684FF400721A640E
:102EC000032379E0FB681B69B3F5804F08D17B8948
:102ED000DBB243F00103DAB2FB681B681A615FE002
:102EE0007B89DB11DBB203F00603DBB263F00F0377
:102EF000DAB2FB681B681A613B687A683049F86887
:102F000000F072F90346002B01D0012354E07B89C5
:102F1000DAB2FB681B681A613B687A682949F8686D
:102F200000F062F90346002B01D0012344E00023A6
:102F30003B61FB681B685B693B61FB681B689B69C5
:102F40003B613B69FB681B681A68FB681B6842F4BD
:102F500080721A603B6800937B6800224FF0011179
:102F6000F86800F0C7F80346002B0DD0FB681B681B
:102F70001B6803F48073B3F5807F03D1FB684FF4C3
:102F800000721A64032317E07B89DB11DBB203F0C4
:102F90000603DBB263F00E03DAB2FB681B681A614A
:102FA0003B687A680749F86800F01EF90346002B71
:102FB00001D0012300E0002318461837BD4680BD2C
:102FC000080001000200010080B588B002AFF8607F
:102FD000084611461A4603467B810B463B81134641
:102FE000FB80FB681B681A68FB681B6842F48072F0
:102FF0001A607B6A00933B6A00224FF00111F86867
:1030000000F078F80346002B0DD0FB681B681B68A6
:1030100003F48073B3F5807F03D1FB684FF4007233
:103020001A6403235FE07B89DBB21A46FB681B68E6
:1030300002F0FE021A617B6A3A6A2D49F86800F0D4
:10304000D3F80346002B01D001234CE000237B6121
:10305000FB681B685B697B61FB681B689B697B6124
:103060007B697A6A396AF86800F05EF90346002BDA
:103070000DD0FB681B6C042B07D1FB681B681A681A
:10308000FB681B6842F400721A6001232BE0FB8886
:10309000012B05D13B89DAB2FB681B681A6121E07C
:1030A0003B891B0A9BB2DAB2FB681B681A617A6A19
:1030B000396AF86800F038F90346002B0DD0FB6838
:1030C0001B6C042B07D1FB681B681A68FB681B6824
:1030D00042F400721A60012305E03B89DAB2FB6812
:1030E0001B681A61002318461837BD4680BD00BF13
:1030F0000200010080B584B000AFF860B9603B60A9
:103100001346FB7148E03B68B3F1FF3F44D0FEF744
:10311000B5FD0246BB69D31A3A689A4202D33B68AE
:10312000002B39D1BB681B0CDBB2012B0DD1FB6826
:103130001B685B69DA43BB6813409BB2002B0CBF72
:1031400001230023DBB21A460CE0FB681B689B6975
:10315000DA43BB6813409BB2002B0CBF0123002352
:10316000DBB21A46FB799A4216D1FB6800221A6339
:10317000FB68202283F83D20FB68002283F83E2074
:10318000FB681B6C43F02002FB681A64FB6800229A
:1031900083F83C20012323E0BB681B0CDBB2012B2E
:1031A0000DD1FB681B685B69DA43BB6813409BB2B7
:1031B000002B0CBF01230023DBB21A460CE0FB6896
:1031C0001B689B69DA43BB6813409BB2002B0CBFA2
:1031D00001230023DBB21A46FB799A4293D00023E5
:1031E00018461037BD4680BD80B584B000AFF8608A
:1031F000B9607A603B6071E0FB681B685B6903F44F
:103200008063B3F5806F23D1FB681B681A68FB6885
:103210001B6842F400721A60FB681B686FF48062DE
:103220005A61FB6800221A63FB68202283F83D2064
:10323000FB68002283F83E20FB681B6C43F004020D
:10324000FB681A64FB68002283F83C20012367E0D6
:103250007B68B3F1FF3F41D0FEF710FD02463B68AB
:10326000D31A7A689A4202D37B68002B36D1BB68A6
:103270001B0CDBB2012B0CD1FB681B685B69DA43CA
:10328000BB6813409BB2002B14BF01230023DBB2A9
:103290000BE0FB681B689B69DA43BB6813409BB279
:1032A000002B14BF01230023DBB2002B16D0FB68D8
:1032B00000221A63FB68202283F83D20FB6800226D
:1032C00083F83E20FB681B6C43F02002FB681A6405
:1032D000FB68002283F83C20012321E0BB681B0C23
:1032E000DBB2012B0CD1FB681B685B69DA43BB685E
:1032F00013409BB2002B14BF01230023DBB20BE071
:10330000FB681B689B69DA43BB6813409BB2002BC8
:1033100014BF01230023DBB2002B7FF46DAF002329
:1033200018461037BD4680BD80B584B000AFF86048
:10333000B9607A6034E0F86800F0E3F80346002BE7
:1033400001D0012334E0BB68B3F1FF3F28D0FEF782
:1033500095FC02467B68D31ABA689A4202D3BB68CE
:10336000002B1DD1FB681B685B6903F08003802B79
:1033700016D0FB6800221A63FB68202283F83D20E8
:10338000FB68002283F83E20FB681B6C43F02002A0
:10339000FB681A64FB68002283F83C20012307E0E5
:1033A000FB681B685B6903F08003802BC3D100239B
:1033B00018461037BD4680BD80B584B000AFF860B8
:1033C000B9607A6034E0F86800F09BF80346002B9F
:1033D00001D0012334E0BB68B3F1FF3F28D0FEF7F2
:1033E0004DFC02467B68D31ABA689A4202D3BB6886
:1033F000002B1DD1FB681B685B6903F00403042BE1
:1034000016D0FB6800221A63FB68202283F83D2057
:10341000FB68002283F83E20FB681B6C43F020020F
:10342000FB681A64FB68002283F83C20012307E054
:10343000FB681B685B6903F00403042BC3D1002302
:1034400018461037BD4680BD80B584B000AFF86027
:10345000B9607A6049E0FB681B685B6903F01003A0
:10346000102B19D1FB681B686FF010025A61FB68C2
:1034700000221A63FB68202283F83D20FB680022AB
:1034800083F83E20FB681A6CFB681A64FB68002214
:1034900083F83C20012330E0FEF7F0FB02467B6816
:1034A000D31ABA689A4202D3BB68002B1DD1FB68BD
:1034B0001B685B6903F04003402B16D0FB680022B9
:1034C0001A63FB68202283F83D20FB68002283F802
:1034D0003E20FB681B6C43F02002FB681A64FB680B
:1034E000002283F83C20012307E0FB681B685B692E
:1034F00003F04003402BAED1002318461037BD46E1
:1035000080BD80B483B000AF78607B681B685B6966
:1035100003F48063B3F5806F1BD17B681B686FF485
:1035200080625A617B6800221A637B68202283F8DC
:103530003D207B68002283F83E207B681B6C43F0B3
:1035400004027B681A647B68002283F83C20012314
:1035500000E0002318460C37BD4680BC70470000D1
:1035600080B586B000AF78607B68002B01D1012365
:1035700072E27B681B6803F00103002B00F0878078
:10358000924B5B6803F00C03042B0CD08F4B5B68F1
:1035900003F00C03082B12D18C4B5B6803F48033CF
:1035A000B3F5803F0BD1894B1B6803F40033002B2C
:1035B0006CD07B685B68002B68D101234CE27B6890
:1035C0005B68B3F5803F06D1804B1B687F4A43F4AC
:1035D000803313602EE07B685B68002B0CD17B4B43
:1035E0001B687A4A23F480331360784B1B68774A50
:1035F00023F4802313601DE07B685B68B3F5A02F84
:103600000CD1724B1B68714A43F4802313606F4BDB
:103610001B686E4A43F4803313600BE06B4B1B68EE
:103620006A4A23F480331360684B1B68674A23F4AB
:10363000802313607B685B68002B13D0FEF71EFBB2
:10364000386108E0FEF71AFB02463B69D31A642B87
:1036500001D9032300E25D4B1B6803F40033002B08
:10366000F0D014E0FEF70AFB386108E0FEF706FB35
:1036700002463B69D31A642B01D90323ECE1534B77
:103680001B6803F40033002BF0D100E000BF7B681F
:103690001B6803F00203002B63D04C4B5B6803F004
:1036A0000C03002B0BD0494B5B6803F00C03082B79
:1036B0001CD1464B5B6803F48033002B16D1434B7F
:1036C0001B6803F00203002B05D07B681B69012BEC
:1036D00001D00123C0E13D4B1B6823F0F8027B6859
:1036E0005B69DB00394913430B603AE07B681B6977
:1036F000002B20D0364B01221A60FEF7BFFA38614A
:1037000008E0FEF7BBFA02463B69D31A022B01D947
:103710000323A1E12D4B1B6803F00203002BF0D023
:103720002A4B1B6823F0F8027B685B69DB002749A2
:1037300013430B6015E0264B00221A60FEF79EFA39
:10374000386108E0FEF79AFA02463B69D31A022B69
:1037500001D9032380E11D4B1B6803F00203002BFA
:10376000F0D17B681B6803F00803002B3AD07B681C
:103770009B69002B19D0174B01221A60FEF77EFAC5
:10378000386108E0FEF77AFA02463B69D31A022B49
:1037900001D9032360E10D4B5B6A03F00203002BA8
:1037A000F0D0012000F0CEFA1CE00A4B00221A6093
:1037B000FEF764FA38610FE0FEF760FA02463B69F3
:1037C000D31A022B08D9032346E100BF00100240A0
:1037D0000000424280044242924B5B6A03F00203C3
:1037E000002BE9D17B681B6803F00403002B00F079
:1037F000A6800023FB758B4BDB6903F08053002B05
:103800000DD1884BDB69874A43F08053D361854BE8
:10381000DB6903F08053BB60BB680123FB75824BFF
:103820001B6803F48073002B18D17F4B1B687E4A02
:1038300043F480731360FEF721FA386108E0FEF765
:103840001DFA02463B69D31A642B01D9032303E115
:10385000754B1B6803F48073002BF0D07B68DB682A
:10386000012B06D16F4B1B6A6E4A43F001031362B2
:103870002DE07B68DB68002B0CD16A4B1B6A694A20
:1038800023F001031362674B1B6A664A23F00403AB
:1038900013621CE07B68DB68052B0CD1614B1B6A53
:1038A000604A43F0040313625E4B1B6A5D4A43F0B7
:1038B000010313620BE05B4B1B6A5A4A23F00103BE
:1038C0001362584B1B6A574A23F0040313627B6848
:1038D000DB68002B15D0FEF7D1F938610AE0FEF75E
:1038E000CDF902463B69D31A41F28832934201D99D
:1038F0000323B1E04B4B1B6A03F00203002BEED015
:1039000014E0FEF7BBF938610AE0FEF7B7F90246AA
:103910003B69D31A41F28832934201D903239BE0D9
:10392000404B1B6A03F00203002BEED1FB7D012B01
:1039300005D13C4BDB693B4A23F08053D3617B6864
:10394000DB69002B00F08780364B5B6803F00C03CB
:10395000082B61D07B68DB69022B46D1334B0022F8
:103960001A60FEF78BF9386108E0FEF787F9024626
:103970003B69D31A022B01D903236DE0294B1B6845
:1039800003F00073002BF0D17B681B6AB3F5803F16
:1039900008D1244B5B6823F400327B689B68214983
:1039A00013434B601F4B5B6823F474127B68196AE6
:1039B0007B685B6A0B431B4913434B601B4B012223
:1039C0001A60FEF75BF9386108E0FEF757F9024626
:1039D0003B69D31A022B01D903233DE0114B1B682D
:1039E00003F00073002BF0D035E0104B00221A607A
:1039F000FEF744F9386108E0FEF740F902463B69FA
:103A0000D31A022B01D9032326E0064B1B6803F0CF
:103A10000073002BF0D11EE07B68DB69012B07D11E
:103A2000012319E000100240007000406000424293
:103A30000B4B5B68FB60FB6803F480327B681B6A9E
:103A40009A4206D1FB6803F470127B685B6A9A4263
:103A500001D0012300E0002318461837BD4680BD81
:103A60000010024080B584B000AF786039607B6898
:103A7000002B01D10123D0E06A4B1B6803F0070340
:103A80003A689A4210D9674B1B6823F007026549D0
:103A90003B6813430B60634B1B6803F007033A68F2
:103AA0009A4201D00123B8E07B681B6803F002034F
:103AB000002B20D07B681B6803F00403002B05D08B
:103AC000594B5B68584A43F4E06353607B681B685A
:103AD00003F00803002B05D0534B5B68524A43F4B4
:103AE00060535360504B5B6823F0F0027B689B6827
:103AF0004D4913434B607B681B6803F00103002BA7
:103B000040D07B685B68012B07D1474B1B6803F4EF
:103B10000033002B15D101237FE07B685B68022B0B
:103B200007D1414B1B6803F00073002B09D101231F
:103B300073E03D4B1B6803F00203002B01D101230E
:103B40006BE0394B5B6823F003027B685B683649A6
:103B500013434B60FEF792F8F8600AE0FEF78EF828
:103B60000246FB68D31A41F28832934201D90323FB
:103B700053E02D4B5B6803F00C027B685B689B0095
:103B80009A42EBD1274B1B6803F007033A689A422D
:103B900010D2244B1B6823F0070222493B681343D1
:103BA0000B60204B1B6803F007033A689A4201D070
:103BB000012332E07B681B6803F00403002B08D06C
:103BC000194B5B6823F4E0627B68DB68164913439A
:103BD0004B607B681B6803F00803002B09D0124B75
:103BE0005B6823F460527B681B69DB000E4913435A
:103BF0004B6000F021F802460B4B5B681B0903F099
:103C00000F030A49CB5C22FA03F3094A1360094BFC
:103C10001B681846FDF7F0FF002318461037BD4615
:103C200080BD00BF0020024000100240E472000886
:103C3000280000202C00002080B487B000AF0023B3
:103C4000FB600023BB6000237B6100237B600023BB
:103C50003B611E4B5B68FB60FB6803F00C03042BAD
:103C600002D0082B03D027E0194B3B6127E0FB680B
:103C70009B0C03F00F03174AD35C7B60FB6803F4D3
:103C80008033002B10D0114B5B685B0C03F00103F9
:103C9000114AD35CBB607B680D4A03FB02F2BB6830
:103CA000B2FBF3F37B6104E07B680C4A02FB03F395
:103CB0007B617B693B6102E0054B3B6100BF3B6977
:103CC00018461C37BD4680BC704700BF001002403C
:103CD00000127A00FC7200080C73000800093D0015
:103CE00080B400AF024B1B681846BD4680BC7047CD
:103CF0002800002080B500AFFFF7F2FF0246054B19
:103D00005B681B0A03F007030349CB5C22FA03F349
:103D1000184680BD00100240F472000880B500AF64
:103D2000FFF7DEFF0246054B5B68DB0A03F0070383
:103D30000349CB5C22FA03F3184680BD0010024011
:103D4000F472000880B485B000AF78600A4B1B683D
:103D50000A4AA2FB03235B0A7A6802FB03F3FB60B7
:103D600000BFFB685A1EFA60002BF9D100BF00BFEC
:103D70001437BD4680BC704728000020D34D621028
:103D800080B582B000AF78607B68002B01D1012341
:103D900076E07B685B6A002B08D17B685B68B3F5D3
:103DA000827F09D07B680022DA6105E07B6800220F
:103DB0001A617B6800225A617B6800229A627B68E4
:103DC00093F85130DBB2002B06D17B68002283F8D8
:103DD00050207868FDF75CFD7B68022283F8512053
:103DE0007B681B681A687B681B6822F040021A60B7
:103DF0007B685B6803F482727B689B6803F404430E
:103E00001A437B68DB6803F400631A437B681B6911
:103E100003F002031A437B685B6903F001031A4352
:103E20007B689B6903F400731A437B68DB6903F0CA
:103E300038031A437B681B6A03F0800342EA0301DC
:103E40007B689B6A03F400527B681B680A431A6014
:103E50007B689B691A0C7B681B6802F004025A603D
:103E60007B681B68DA697B681B6822F40062DA6190
:103E70007B6800225A657B68012283F85120002369
:103E800018460837BD4680BD80B588B000AFF860E1
:103E9000B9603B601346FB800023FB77FB6893F817
:103EA0005030012B01D102232DE1FB68012283F860
:103EB0005020FDF7E3FEB861FB88FB82FB6893F8B6
:103EC0005130DBB2012B02D00223FB7716E1BB6835
:103ED000002B02D0FB88002B02D10123FB770DE1E0
:103EE000FB68032283F85120FB6800225A65FB68B7
:103EF000BA681A63FB68FA889A86FB68FA88DA86D9
:103F0000FB6800229A63FB6800229A87FB68002204
:103F1000DA87FB6800225A64FB6800221A64FB6897
:103F20009B68B3F5004F0FD1FB681B681A68FB68EC
:103F30001B6822F040021A60FB681B681A68FB6865
:103F40001B6842F480421A60FB681B681B6803F020
:103F50004003402B07D0FB681B681A68FB681B688E
:103F600042F040021A60FB68DB68B3F5006F4FD186
:103F7000FB685B68002B02D0FB8A012B42D1FB68F7
:103F80001B6B1A88FB681B68DA60FB681B6B9A1C4A
:103F9000FB681A63FB68DB8E9BB2013B9AB2FB683D
:103FA000DA862FE0FB681B689B6803F00203022B94
:103FB00012D1FB681B6B1A88FB681B68DA60FB6810
:103FC0001B6B9A1CFB681A63FB68DB8E9BB2013B80
:103FD0009AB2FB68DA8615E0FDF750FE0246BB692F
:103FE000D31A3A689A4203D83B68B3F1FF3F02D133
:103FF0003B68002B06D10323FB77FB68012283F883
:1040000051207BE0FB68DB8E9BB2002BCAD150E0D5
:10401000FB685B68002B02D0FB8A012B44D1FB6854
:104020001A6BFB681B680C3312781A70FB681B6BE9
:104030005A1CFB681A63FB68DB8E9BB2013B9AB289
:10404000FB68DA8630E0FB681B689B6803F00203BC
:10405000022B13D1FB681A6BFB681B680C331278B8
:104060001A70FB681B6B5A1CFB681A63FB68DB8EBB
:104070009BB2013B9AB2FB68DA8615E0FDF7FEFDC4
:104080000246BB69D31A3A689A4203D83B68B3F137
:10409000FF3F02D13B68002B06D10323FB77FB686F
:1040A000012283F8512029E0FB68DB8E9BB2002BB4
:1040B000C9D1BA693968F86800F0B2F80346002B34
:1040C00002D0FB6820225A65FB689B68002B0AD14E
:1040D00000233B61FB681B68DB683B61FB681B6876
:1040E0009B683B613B69FB685B6D002B02D0012341
:1040F000FB7703E0FB68012283F85120FB68002274
:1041000083F85020FB7F18462037BD4680BD000055
:1041100080B588B000AFF860B9603B601346FB71B2
:10412000FDF7ACFD0246BB6A9B1A3A681344FB617B
:10413000FDF7A4FDB861394B1B685B011B0DFA69E3
:1041400002FB03F37B6154E03B68B3F1FF3F50D0C7
:10415000FDF794FD0246BB69D31AFA699A4202D967
:10416000FB69002B3DD1FB681B685A68FB681B6824
:1041700022F0E0025A60FB685B68B3F5827F11D1E0
:10418000FB689B68B3F5004F04D0FB689B68B3F5F0
:10419000806F07D1FB681B681A68FB681B6822F0F8
:1041A00040021A60FB689B6AB3F5005F0FD1FB68A1
:1041B0001B681A68FB681B6822F400521A60FB68CF
:1041C0001B681A68FB681B6842F400521A60FB689F
:1041D000012283F85120FB68002283F8502003233A
:1041E00017E07B69002B01D10023FB617B69013B58
:1041F0007B61FB681B689A68BB681340BA689A4287
:104200000CBF01230023DBB21A46FB799A429BD1F3
:10421000002318462037BD4680BD00BF280000207F
:1042200080B586B002AFF860B9607A607B680093B1
:10423000BB6800228021F868FFF76AFF0346002B65
:1042400007D0FB685B6D43F02002FB685A650323CF
:1042500000E0002318461037BD4680BD80B582B00F
:1042600000AF78607B68002B01D1012342E07B68BE
:1042700093F84130DBB2002B06D17B68002283F833
:1042800040207868FDF742FB7B68242283F84120B8
:104290007B681B68DA687B681B6822F40052DA606E
:1042A000786800F01DF97B681B681A697B681B68D9
:1042B00022F490421A617B681B685A697B681B680C
:1042C00022F02A025A617B681B68DA687B681B68E7
:1042D00042F40052DA607B6800225A647B68202234
:1042E00083F841207B68202283F842207B680022EB
:1042F0005A63002318460837BD4680BD80B58AB092
:1043000002AFF860B9603B601346FB8000237B611D
:10431000FB6893F84130DBB2202B6DD1BB68002BDA
:1043200002D0FB88002B01D1012366E0FB6800224C
:104330005A64FB68212283F84120FDF79FFC7861D5
:10434000FB68FA889A84FB68FA88DA84FB689B68C1
:10435000B3F5805F08D1FB681B69002B04D10023F3
:10436000FB61BB68BB6103E0BB68FB610023BB6111
:104370002AE03B6800937B6900228021F86800F006
:1043800040F80346002B01D0032336E0FB69002BE5
:104390000BD1BB691B881A46FB681B68C2F3080275
:1043A0005A60BB690233BB6107E0FB691A78FB689E
:1043B0001B685A60FB690133FB61FB68DB8C9BB2B5
:1043C000013B9AB2FB68DA84FB68DB8C9BB2002B62
:1043D000CFD13B6800937B6900224021F86800F050
:1043E00010F80346002B01D0032306E0FB682022CF
:1043F00083F84120002300E0022318462037BD4601
:1044000080BD80B590B000AFF860B9603B601346E6
:10441000FB7150E0BB6CB3F1FF3F4CD0BB6C002B89
:1044200007D0FDF72BFC02463B68D31ABA6C9A42C0
:1044300041D2FB681B680C33BB62BB6A53E8003F88
:104440007B627B6A23F4D073FB63FB681B680C33CD
:10445000FA6B7A633B63396B7A6B41E80023FB624A
:10446000FB6A002BE5D1FB681B6814337B617B6919
:1044700053E8003F3B613B6923F00103BB63FB68EA
:104480001B681433BA6B3A62FB61F9693A6A41E816
:104490000023BB61BB69002BE5D1FB68202283F8B8
:1044A0004120FB68202283F84220FB68002283F829
:1044B000402003230FE0FB681B681A68BB681340A9
:1044C000BA689A420CBF01230023DBB21A46FB797B
:1044D0009A429FD0002318464037BD4680BD000059
:1044E00080B584B000AF78607B681B681B6923F4DB
:1044F00040517B68DA687B681B680A431A617B68F5
:104500009A687B681B691A437B685B691343BB60CD
:104510007B681B68DB6823F4B05323F00C037A68D4
:104520001268B9680B43D3607B681B685B6923F42E
:1045300040717B689A697B681B680A435A617B6893
:104540001B682C4A934203D1FFF7E8FBF86002E0B6
:10455000FFF7D0FBF860FA6813469B0013449A00FB
:104560001A447B685B689B00B2FBF3F3224AA2FB10
:1045700003235B091901FA6813469B0013449A0050
:104580001A447B685B689B00B2FBF3F21A4BA3FBF7
:1045900002035B09642000FB03F3D31A1B013233CF
:1045A000154AA2FB03235B0903F0F0031944FA68E0
:1045B00013469B0013449A001A447B685B689B0077
:1045C000B2FBF3F20C4BA3FB02035B09642000FB7C
:1045D00003F3D31A1B013233074AA2FB03235B09FF
:1045E00003F00F027B681B680A449A6000BF103713
:1045F000BD4680BD003801401F85EB51002B2DE9E1
:10460000F0471F46BBBF03F100431F4600232D2385
:1046100088B01446129A109D1370149BDDF84CA0BC
:1046200023F02008B8F1460F05D0B8F1450F00D1AE
:104630000135022300E0032307AA049206AACDE96C
:1046400002A2CDE9003522463B4600F061FEB8F1FA
:10465000470F064602D1119BDB0722D5B8F1460F62
:1046600006EB050910D13378302B0AD10022002344
:1046700020463946FCF798F918B9C5F10105CAF882
:104680000050DAF8003099440022002320463946D1
:10469000FCF78AF908B1CDF81C903022079B4B45F6
:1046A00007D33046079B159A9B1B136008B0BDE8E3
:1046B000F087591C07911A70F0E70346F7B50029F7
:1046C00003F8022BB6BF2D222B2249420929427042
:1046D0002ADD0DF1070217460A2691FBF6F59446EE
:1046E00006FB151430340CF8014C0C46632C29469B
:1046F00002F1FF32F1DC3031ACF1020402F8011CAE
:104700002246411CBA420AD30DF10902A2EB0C0267
:10471000BC4288BF00221344181A03B0F0BD12F83F
:10472000015B01F8015FEDE7302330318370C17028
:10473000031DF1E72DE9F04F91B00C46DDF86880DC
:1047400016461F46054600F0D3FC03681846099339
:10475000FBF7FEFC00230E93D8F800300A900733D5
:1047600023F0070303F1080294F81890D4F800B07E
:10477000C8F80020D3E900A852464346C4E91223F2
:1047800028F000430B934FF0FF3250469C4B0B999F
:10479000FCF73CF970BB4FF0FF325046984B0B9939
:1047A000FCF716F930BB0022002350464146FCF7C7
:1047B00005F910B12D2384F84330924A924BB9F198
:1047C000470F94BF9046984603234FF0000A236199
:1047D0002BF00403236033462146284600970FAA96
:1047E00000F0D6F9013040F090804FF0FF3011B06A
:1047F000BDE8F08F5246434650464146FCF706F965
:1048000048B1B8F1000FB8BF2D23804AB8BF84F873
:1048100043307F4BD3E7636809F0DF015A1C42D174
:1048200006236360002206920EAACDE904920DAA27
:104830004BF4806303920DF13302CDE90132236022
:10484000636852460093284643460B91FFF7D6FE15
:104850000B99804647290D9908D1C81C02DB636873
:10486000994240DDA9F102095FFA89F9B9F1650FB2
:104870001FD84A46013904F150000D91FFF71DFF82
:104880000E9A82461318012A236102DC2268D2079D
:1048900001D5013323619DF83330002B9BD02D23AC
:1048A00084F8433097E74729BCD1002BBAD10123C4
:1048B000B7E7B9F1660F18D1002963680BDD2161F4
:1048C00013B92268D00702D501330B4423614FF09E
:1048D000000AA165DFE713B92268D20701D50233C8
:1048E000F4E70123F2E74FF067090E9B994205DBDD
:1048F00023682161D807EAD54B1CE7E70029CCBF24
:104900000122C1F102021344E0E723685A0507D4EB
:104910002369424631462846B84701302BD164E727
:10492000B9F1650F40F2DD80D4E9120100220023C5
:10493000FCF73AF8002833D0012331462846354A9F
:10494000B84701303FF451AFDDE90D239A4202DB55
:104950002368D8070FD5DDE9092331462846B84733
:1049600001303FF442AF4FF0000804F11A090E9BEA
:10497000013B434509DC23689B0700F10481E068A3
:104980000F9B9842B8BF184631E701234A4631468B
:104990002846B84701303FF428AF08F10108E6E7A0
:1049A0000D9B002B38DC012331462846194AB847B5
:1049B00001303FF41AAFDDE90D32134302D1236811
:1049C000D907D8D5DDE9092331462846B847013053
:1049D0003FF40BAF4FF0000904F11A0A0D9B5B4244
:1049E0004B4501DC0E9B94E7012352463146284695
:1049F000B84701303FF4F9AE09F10109EEE700BF15
:104A0000FFFFEF7F0E730008127300081673000893
:104A10001A7300081E7300080E9AA36D9A42A8BF6D
:104A20001A46002A914637DC4FF0000B29EAE97953
:104A300004F11A02D4F858A0AAEB09035B4533DC51
:104A4000DDE90D239A423BDB2368DA0738D4DDE940
:104A50000D32A2EB0309A2EB0A029145A8BF9146D1
:104A6000B9F1000F34DC4FF0000829EAE97904F1CC
:104A70001A0ADDE90D239B1AA3EB090343457FF7CF
:104A80007AAF0123524631462846B84701303FF4F9
:104A9000ACAE08F10108ECE7134631464246284621
:104AA000B8470130C0D1A0E60123314628460B9219
:104AB000B84701303FF499AE0B9A0BF1010BB9E7FF
:104AC0003146DDE909232846B8470130BFD18CE6DD
:104AD0004B463146284608EB0A02B8470130C2D19E
:104AE00083E60E9A012A01DCDB0739D50123424611
:104AF00031462846B84701303FF477AEDDE9092357
:104B000031462846B84701303FF46FAED4E9120170
:104B100000220023DDF83890FBF746FFD8B909F1F1
:104B2000FF3308F1010231462846B84701300ED163
:104B30005BE601234A4631462846B84701303FF438
:104B400054AE08F101080E9B013B4345F1DC53468E
:104B500004F15002DEE64FF0000804F11A09F2E712
:104B600001234246DFE701234A4631462846B8473B
:104B700001303FF43AAE08F10108E3680F995B1A7F
:104B80004345F0DCFBE64FF0000804F11909F4E7B7
:104B90002DE9F047164699468A680B690746934205
:104BA000B8BF1346336091F843200C46DDF82080EF
:104BB0000AB1013333602368990642BF3368023378
:104BC0003360256815F0060506D104F1190AE3687B
:104BD00032689B1AAB422BDC94F84320131E2268E8
:104BE00018BF0123920630D44946384604F14302E7
:104BF000C047013023D02368226903F00603042B49
:104C000014BF002533684FF0000608BFE56804F1C3
:104C10001A0408BFED1A54F8123C08BF25EAE575DE
:104C20009342C4BF9B1AED18B5421AD1002008E088
:104C30000123524649463846C047013003D14FF060
:104C4000FF30BDE8F0870135C1E73020E11881F879
:104C500043005A1C94F845102244023382F8431052
:104C6000C2E70123224649463846C0470130E6D014
:104C70000136D9E72DE9FF470F7E9146782F804610
:104C80000C469A460C9D01F1430207D8622F0AD8C0
:104C9000002F00F0D580582F00F0C18004F14205AC
:104CA00084F842703AE0A7F16303152BF6D801A10E
:104CB00051F823F00D4D0008214D00089D4C0008CF
:104CC0009D4C00089D4C00089D4C0008214D00089B
:104CD0009D4C00089D4C00089D4C00089D4C000810
:104CE000274E00084D4D0008E14D00089D4C00087E
:104CF0009D4C0008494E00089D4C00084D4D000891
:104D00009D4C00089D4C0008E94D00082B681A1DB9
:104D10001B682A6004F1420584F842300123A0E0B8
:104D200020682B68070603F10401296001D51E687D
:104D300003E04606FBD5B3F90060002E03DA2D230D
:104D4000764284F843300A23594812E02B682068E1
:104D5000191D2960050601D51E6802E04106FBD534
:104D60001E886F2F0CBF08230A235148002184F8A6
:104D700043106568002DA8BF2168A560A4BF21F07D
:104D8000040121600EB9002D4BD01546B6FBF3F19E
:104D900003FB1167C75D05F8017D3746BB420E4630
:104DA000F4D9082B0BD12368DE0708D52369616885
:104DB0009942DEBF302305F8013C05F1FF35521B57
:104DC00022614B4621464046CDF800A003AAFFF7DA
:104DD000DFFE01304AD14FF0FF3004B0BDE8F0876C
:104DE000236843F0200323607827324884F8457015
:104DF000236829681F0651F8046B02D45F0648BF78
:104E0000B6B2DF0748BF43F02003296048BF2360E4
:104E10001EB9236823F0200323601023A6E724484B
:104E2000E4E71546BDE72B682668181D6169286010
:104E300035061B6801D5196002E07006FBD51980A4
:104E4000002315462361BCE72B6800211A1D2A6048
:104E50001D686268284600F0C1F908B1401B606017
:104E600063682361002384F84330AAE72A46494651
:104E700040462369D0470130ADD023689B0713D447
:104E8000E068039B9842B8BF1846A6E70123324664
:104E900049464046D04701309DD00135E36803992B
:104EA0005B1AAB42F2DCEBE7002504F11906F5E7EB
:104EB0002073000831730008002310B50446C0E9D0
:104EC0000033C0E90433836081814366C28183611A
:104ED000194608225C3000F002F9054B2462636237
:104EE000044BA362044BE362044B236310BD00BF79
:104EF000595000087B500008B3500008D7500008F4
:104F0000024A0349034800F069B800BF340000209A
:104F1000756B00084000002041680C4B10B59942A9
:104F2000044601D001F026FEA168094B994202D047
:104F3000204601F01FFEE168064B994204D020464E
:104F4000BDE8104001F016BE10BD00BFC003002038
:104F5000280400209004002010B50B4B0B4C0C4A89
:104F600020461A6004210022FFF7A6FF04F1680022
:104F700001220921FFF7A0FF04F1D0000222BDE8C1
:104F800010401221FFF798BFF8040020C003002052
:104F9000014F0008014800F01FB900BF01050020C3
:104FA000014800F01AB900BF0105002010B5044601
:104FB000FFF7F0FF236A1BB1BDE81040FFF7F0BF19
:104FC000044B2362044B1B68002BF5D1FFF7C4FF91
:104FD000F2E700BF194F0008F80400202DE9F8435C
:104FE0000746884614460026D4E90195B9F101091F
:104FF00005D52468002CF7D13046BDE8F883AB898D
:10500000012B07D9B5F90E30013303D029463846B4
:10501000C04706436835E9E70EB46FF0004100B5BC
:105020009CB01DAB02900690079104910848094975
:1050300053F8042B0591006802A9019301F01AFCB2
:105040000022029B1A701CB05DF804EB03B070479D
:105050008C0000200802FFFF10B50C46B1F90E10BD
:1050600000F06CF80028ABBF636DA3891B1823F414
:105070008053ACBF6365A38110BD2DE9F0411F468D
:105080008B890546DB050C46164605D50223002212
:10509000B1F90E1000F040F8A389324623F4805392
:1050A000A38128463B46B4F90E10BDE8F04100F05C
:1050B00057B810B50C46B1F90E1000F02DF8431C8E
:1050C000A38915BF606523F4805343F48053A38103
:1050D00018BFA38110BDB1F90E1000F00DB8034642
:1050E0000244934200D1704703F8011BF9E7000026
:1050F000004870478001002038B50023054D044664
:1051000008462B60FCF7CFFC431C02D12B6803B18F
:10511000236038BDFC04002038B50446084611461B
:105120000022054D2A601A46FCF7E1FC431C02D11F
:105130002B6803B1236038BDFC04002038B5044659
:10514000084611460022054D2A601A46FCF772FCFB
:10515000431C02D12B6803B1236038BDFC0400203E
:1051600038B50446084611460022054D2A601A4605
:10517000FCF77DFC431C02D12B6803B1236038BDD2
:10518000FC040020014B1868704700BF8C00002011
:1051900070B500260C4D0D4C641BA410A64209D11D
:1051A00002F088F800260A4D0A4C641BA410A6429F
:1051B00005D170BD55F8043B98470136EEE755F828
:1051C000043B98470136F2E77C7600087C760008BD
:1051D0007C7600088076000870477047034610B55B
:1051E000C9B202449342184601D1002003E004787A
:1051F00001338C42F6D110BD2DE9F74F03690C69DC
:105200000746A3427FDB013C00F1140501F11408BD
:1052100005EB8403019358F8243055F8242001331A
:105220009A42B2FBF3F64FEA840B08EB840931D3C0
:105230004FF0000E4046AC46F24650F8042B93B2B5
:1052400006FB03E34FEA124E1A0C9BB206FB0E223A
:10525000AAEB0303DCF800A04FEA124E1FFA8AFA09
:105260005344DCF800A092B2C2EB1A4202EB234294
:105270009BB243EA024381454FEA224A4CF8043B81
:10528000DBD255F80B302BB9019B043B9D421A46EB
:105290002DD33C61384601F095F9002823DB2946DF
:1052A0000020013658F8042BD1F800C093B2C31A7D
:1052B000120C1FFA8CF00344C2EB1C4202EB234297
:1052C0009BB243EA0243C1454FEA224041F8043B06
:1052D000E8D255F8242005EB840322B9043B9D4213
:1052E0001A460AD33C61304603B0BDE8F08F12681D
:1052F000043B002ACDD1013CC8E71268043B002AD8
:10530000F0D1013CEBE70020EEE7000000000000D8
:105310002DE9F04F16461F46C46999B00546CDE900
:105320000467DDF8948074B9102000F01DFE024679
:10533000E86120B9EF21AC4BAC4801F07BFCC0E93F
:1053400001440460C460EB69196851B15A680123D3
:1053500093404A608B60284600F0FAFE0022EB6919
:105360001A603B1EAFBF0023012223F000430593C8
:10537000A8BFC8F80030DDF814909D4BB8BFC8F83E
:10538000002033EA090319D142F20F73249A136003
:10539000C9F31303334300F08985269B53B9954B1A
:1053A00023E0954B03930833269A1360039819B0B2
:1053B000BDE8F08F8F4B03930333F5E7DDE9043449
:1053C000CDE90C34DDE90C0100220023FBF7ECFAF7
:1053D000804660B10123249A1360269B002B00F0C5
:1053E0006285864B269A1360013B0393DEE716AB7A
:1053F000019317AB00932846DDE90C2301F08AF9ED
:10540000C9F30A548246002C7ED0DDE90C010D9BC5
:10541000A4F2FF34C3F3130343F07F5343F4401368
:10542000CDF84C8019460022754BFAF79DFE68A313
:10543000D3E90023FBF750F867A3D3E90023FAF779
:1054400095FE064620460F46FAF7DCFF64A3D3E933
:105450000023FBF741F802460B4630463946FAF77F
:1054600085FE06460F46FBF7E7FA00228346002337
:1054700030463946FBF7A2FA48B15846FAF7C2FF60
:1054800032463B46FBF790FA08B90BF1FF3BBBF104
:10549000160F57D8DDE90C015A4B03EBCB03D3E9C8
:1054A0000023FBF78BFA00284ED000230BF1FF3BC3
:1054B0000F93169B1B1B5A1E46BFC3F10109002305
:1054C0004FF00009099248BF0993BBF1000F3DDB83
:1054D000099BCDF838B05B44099300230A93229BC3
:1054E000092B67D8052BC4BF043B2293229BC8BF5E
:1054F0000024A3F10203D8BF0124032B00F286800D
:10550000DFE803F02C393756DDE916431C4404F27A
:105510003243202BC1BFC3F1400309FA03F904F25F
:10552000124326FA03F3D6BFC3F1200349EA03006E
:1055300006FA03F0FAF756FF0122A1F1F873013CD5
:1055400013926FE70123B3E70F90B2E7CBF10003AB
:105550000A930023A9EB0B090E93C0E700230B93DA
:10556000239B002B55DC01231A46069308932392B4
:105570000BE00123F3E700230B93239B5B4406938B
:105580000133012B0893B8BF012300210422E869ED
:1055900002F114069E4240D94160284600F098FD71
:1055A000039000283CD1024640F2AF11164BC3E6EF
:1055B0000123E1E7012400230B9422934FF0FF33F2
:1055C0000022069308931223D1E700BFAFF30080B7
:1055D00061436F63A787D23FB3C8608B288AC63FF9
:1055E000FB799F501344D33F4F7300086673000844
:1055F0000000F07F4B730008427300081F7300081F
:105600000000F83F50740008BE73000801230B939C
:10561000D4E7239B06930893B7E701315200B7E71D
:10562000EB69039A1A60089B0E2B00F2A880002CED
:1056300000F0A580BBF1000F34DD9A4B0BF00F0298
:1056400003EBC2031BF4807FD3E90034CDE91034AF
:105650004FEA2B1416D0DDE90C01934B0327D3E955
:105660000823FBF763F8CDE9040104F00F048E4E24
:1056700054B9DDE91023DDE90401FBF757F8CDE962
:10568000040129E00227F2E7E10708D5DDE910016E
:10569000D6E90023FAF720FFCDE9100101376410A5
:1056A0000836E5E700F0A580DDE90C01CBF1000448
:1056B0007C4B04F00F0203EBC203D3E90023FAF79B
:1056C0000BFF02270023CDE90401774E2411002CA3
:1056D00040F08480002BD2D1DDE90434CDE91034D0
:1056E0000F9B002B00F08780DDE9100100226F4B3B
:1056F000FBF764F900287ED0089B002B7BD0069B2B
:10570000002B38DDDDE910010022694BFAF7E4FED9
:10571000CDE90401069C0BF1FF3801373846FAF752
:1057200071FEDDE90423FAF7D7FE0022614BFAF798
:105730001DFDA1F15076CDE910011196002C5DD12F
:10574000DDE9040100225C4BFAF70EFD02460B4630
:10575000CDE904233346109AFBF74EF9002840F0B8
:105760009582DDE90401109A06F10043FBF726F962
:10577000002840F08982DDE90C34CDE90434179B20
:10578000002BC0F25181BBF10E0F00F34D81454B50
:1057900003EBCB03D3E90034CDE90634239B002B84
:1057A00080F2DA80089B002B00F3D68040F06B82F9
:1057B000DDE906010022404BFAF78EFEDDE9042305
:1057C000FBF710F9089C2646002840F0418231235F
:1057D000039F0BF1010B07F8013B3DE2E20705D502
:1057E000D6E90023FAF778FE012301376410083662
:1057F0006DE7022770E7D846089C8FE70399294B8D
:10580000214412910B9903EBC403DDE9106753E9BE
:105810000223002954D000202849FAF787FF3B468D
:105820003246FAF7A1FCCDE91001039FDDE904013E
:10583000FBF702F90446FAF7E5FD02460B46DDE9FF
:105840000401FAF791FC02460B463034CDE90423FB
:10585000DDE9102307F8014BFBF7B0F8002873D1FE
:10586000DDE9042300201149FAF77EFCDDE910236D
:10587000FBF7A4F8002840F0B680129B9F423FF44B
:105880007AAFDDE910010022094BFAF725FE00226C
:10589000CDE91001DDE90401054BFAF71DFECDE964
:1058A0000401C3E750740008287400080000F03FAA
:1058B0000000244000001C40000014400000E03FB5
:1058C00030463946FAF708FE129BCDE91001039CD9
:1058D0001493DDE90401FBF7AFF81590FAF792FD98
:1058E00002460B46DDE90401FAF73EFC159B06462D
:1058F000303304F8013B129B0F469C424FF00002EC
:1059000024D1DDE91001AF4BFAF730FC02460B461B
:1059100030463946FBF770F8002863D1DDE91023E3
:105920000020A849FAF720FC02460B4630463946CB
:10593000FBF744F800283FF41EAF149F7B1E14931E
:1059400017F8013C302BF8D0C3463BE09E4BFAF7EA
:10595000C3FDCDE90401BCE7039FDDE90489DDE96E
:10596000062340464946FAF7E1FEFBF765F8044690
:10597000FAF748FDDDE90623FAF7AEFD02460B46CD
:1059800040464946FAF7F0FB04F1300607F8016B90
:10599000039EDDF820C0BE1BB44502460B4636D13F
:1059A000FAF7E4FBDDE9062380468946FBF724F895
:1059B00058BBDDE9062340464946FAF7F5FF08B132
:1059C000E30722D45146284600F0C2FB0023249A64
:1059D0003B700BF101031360269B002B3FF4E6ACF8
:1059E0001F60E3E427463B461F4613F8012D392A82
:1059F00007D1039A9A42F7D13022039908F101089E
:105A00000A701A7801321A709EE7D846EBE7002236
:105A10006D4BFAF761FD0022002380468946FAF7B4
:105A2000C3FF00289BD0CDE70B9A002A00F0C4806A
:105A3000229A012A00F3A880139A002A00F0A0807D
:105A400003F233434F460A9C099A01211A4428461F
:105A50009944099200F032FC06465FB1099B002B85
:105A600008DDBB42A8BF3B46099AA9EB0309FF1A10
:105A7000D31A09930A9BF3B10B9B002B00F0A08073
:105A8000002C10DD31462246284600F0D5FC524657
:105A900001460646284600F027FC80465146284627
:105AA00000F056FBC2460A9B1A1B04D051462846FA
:105AB00000F0C2FC82460121284600F0FFFB0E9B4D
:105AC0000446002B40F382801A460146284600F027
:105AD000B3FC229B0446012B7BDD4FF000082369B9
