:020000040800F2
:10000000005000200D1B0008C1180008C718000888
:10001000CD180008D3180008D91800080000000007
:10002000000000000000000000000000DF180008D1
:10003000EB18000800000000F7180008031900087A
:10004000551B0008551B0008551B0008551B0008D0
:10005000551B0008551B0008551B0008551B0008C0
:10006000551B0008551B0008551B0008551B0008B0
:10007000551B0008551B0008111900082519000818
:10008000551B0008551B000839190008551B0008AE
:10009000551B0008551B0008551B0008551B000880
:1000A000551B0008551B0008551B0008551B000870
:1000B000551B0008551B0008551B0008551B000860
:1000C000551B0008551B0008551B0008551B000850
:1000D000551B00086D190008551B0008551B00082A
:1000E000551B0008551B0008551B000800000000A8
:1000F0000000000000000000000000000000000000
:0C01000000000000000000005FF808F1A3
:1001100010B5054C237833B9044B13B10448AFF341
:1001200000800123237010BDD401002000000000D6
:10013000A482000808B5034B1BB103490348AFF381
:10014000008008BD00000000D8010020A482000843
:10015000034613F8012B002AFBD1181A0138704707
:1001600081F0004102E000BF83F0004330B54FEA68
:1001700041044FEA430594EA050F08BF90EA020FD5
:100180001FBF54EA000C55EA020C7FEA645C7FEA68
:10019000655C00F0E2804FEA5454D4EB5555B8BF8B
:1001A0006D420CDD2C4480EA020281EA030382EAFC
:1001B000000083EA010180EA020281EA0303362D8E
:1001C00088BF30BD11F0004F4FEA01314FF4801C61
:1001D0004CEA113102D0404261EB410113F0004F73
:1001E0004FEA03334CEA133302D0524263EB43032A
:1001F00094EA050F00F0A780A4F10104D5F1200EC8
:100200000DDB02FA0EFC22FA05F2801841F1000122
:1002100003FA0EF2801843FA05F359410EE0A5F1F6
:1002200020050EF1200E012A03FA0EFC28BF4CF027
:10023000020C43FA05F3C01851EBE37101F00045DD
:1002400007D54FF0000EDCF1000C7EEB00006EEBEA
:100250000101B1F5801F1BD3B1F5001F0CD3490874
:100260005FEA30004FEA3C0C04F101044FEA4452CB
:1002700012F5800F80F09A80BCF1004F08BF5FEA52
:10028000500C50F1000041EB045141EA050130BD32
:100290005FEA4C0C404141EB0101013C28BFB1F544
:1002A000801FE9D291F0000F04BF01460020B1FA8F
:1002B00081F308BF2033A3F10B03B3F120020CDA62
:1002C0000C3208DD02F1140CC2F10C0201FA0CF040
:1002D00021FA02F10CE002F11402D8BFC2F1200CA5
:1002E00001FA02F120FA0CFCDCBF41EA0C0190405B
:1002F000E41AA2BF01EB0451294330BD6FEA0404A4
:100300001F3C1CDA0C340EDC04F11404C4F120028E
:1003100020FA04F001FA02F340EA030021FA04F3A0
:1003200045EA030130BDC4F10C04C4F1200220FAF7
:1003300002F001FA04F340EA0300294630BD21FA35
:1003400004F0294630BD94F0000F83F4801306BFFB
:1003500081F480110134013D4EE77FEA645C18BFEF
:100360007FEA655C29D094EA050F08BF90EA020F86
:1003700005D054EA000C04BF1946104630BD91EA7E
:10038000030F1EBF0021002030BD5FEA545C05D181
:100390004000494128BF41F0004130BD14F58004C0
:1003A0003CBF01F5801130BD01F0004545F0FE4134
:1003B00041F470014FF0000030BD7FEA645C1ABF69
:1003C000194610467FEA655C1CBF0B46024650EAA0
:1003D000013406BF52EA033591EA030F41F40021CC
:1003E00030BD00BF90F0000F04BF0021704730B552
:1003F0004FF4806404F132044FF000054FF0000127
:1004000050E700BF90F0000F04BF0021704730B5E7
:100410004FF4806404F1320410F0004548BF4042BC
:100420004FF000013EE700BF42004FEAE2014FEA11
:1004300031014FEA02701FBF12F07F4393F07F4FEC
:1004400081F06051704732F07F4208BF704793F0EF
:100450007F4F04BF41F40021704730B54FF4607402
:1004600001F0004521F000411CE700BF50EA010205
:1004700008BF704730B54FF000050AE050EA0102AE
:1004800008BF704730B511F0004502D5404261EB1E
:1004900041014FF4806404F132045FEA915C3FF45F
:1004A000D8AE4FF003025FEADC0C18BF03325FEAFC
:1004B000DC0C18BF033202EBDC02C2F1200300FAAD
:1004C00003FC20FA02F001FA03FE40EA0E0021FAD2
:1004D00002F11444BDE600BF70B54FF0FF0C4CF4C0
:1004E000E06C1CEA11541DBF1CEA135594EA0C0F72
:1004F00095EA0C0F00F0DEF82C4481EA030621EAAD
:100500004C5123EA4C5350EA013518BF52EA0335E7
:1005100041F4801143F4801338D0A0FB02CE4FF099
:100520000005E1FB02E506F00042E0FB03E54FF0C9
:100530000006E1FB03569CF0000F18BF4EF0010EC1
:10054000A4F1FF04B6F5007F64F5407404D25FEABD
:100550004E0E6D4146EB060642EAC62141EA555170
:100560004FEAC52040EA5E504FEACE2EB4F1FD0CB2
:1005700088BFBCF5E06F1ED8BEF1004F08BF5FEA30
:10058000500E50F1000041EB045170BD06F00046E2
:1005900046EA010140EA020081EA0301B4EB5C048F
:1005A000C2BFD4EB0C0541EA045170BD41F4801187
:1005B0004FF0000E013C00F3AB8014F1360FDEBFAC
:1005C000002001F0004170BDC4F10004203C35DA88
:1005D0000C341BDC04F11404C4F1200500FA05F30B
:1005E00020FA04F001FA05F240EA020001F00042AC
:1005F00021F0004110EBD37021FA04F642EB060122
:100600005EEA430E08BF20EAD37070BDC4F10C044B
:10061000C4F1200500FA04F320FA05F001FA04F20F
:1006200040EA020001F0004110EBD37041F10001FB
:100630005EEA430E08BF20EAD37070BDC4F1200506
:1006400000FA05F24EEA020E20FA04F301FA05F26E
:1006500043EA020321FA04F001F0004121FA04F216
:1006600020EA020000EBD3705EEA430E08BF20EAE6
:10067000D37070BD94F0000F0FD101F00046400020
:1006800041EB010111F4801F08BF013CF7D041EAA2
:10069000060195F0000F18BF704703F000465200A6
:1006A00043EB030313F4801F08BF013DF7D043EA77
:1006B0000603704794EA0C0F0CEA135518BF95EA2D
:1006C0000C0F0CD050EA410618BF52EA4306D1D1B4
:1006D00081EA030101F000414FF0000070BD50EAD3
:1006E000410606BF1046194652EA430619D094EA5D
:1006F0000C0F02D150EA013613D195EA0C0F05D147
:1007000052EA03361CBF104619460AD181EA03019A
:1007100001F0004141F0FE4141F470014FF0000052
:1007200070BD41F0FE4141F4780170BD70B54FF0ED
:10073000FF0C4CF4E06C1CEA11541DBF1CEA13556D
:1007400094EA0C0F95EA0C0F00F0A7F8A4EB05044F
:1007500081EA030E52EA03354FEA013100F0888046
:100760004FEA03334FF0805545EA131343EA12630F
:100770004FEA022245EA111545EA10654FEA0026C4
:100780000EF000419D4208BF964244F1FD0404F57D
:10079000407402D25B084FEA3202B61A65EB0305D9
:1007A0005B084FEA32024FF480104FF4002CB6EB96
:1007B000020E75EB030E22BFB61A754640EA0C0016
:1007C0005B084FEA3202B6EB020E75EB030E22BF56
:1007D000B61A754640EA5C005B084FEA3202B6EB97
:1007E000020E75EB030E22BFB61A754640EA9C0056
:1007F0005B084FEA3202B6EB020E75EB030E22BF26
:10080000B61A754640EADC0055EA060E18D04FEAE3
:10081000051545EA16754FEA06164FEAC30343EA83
:1008200052734FEAC2025FEA1C1CC0D111F4801F50
:100830000BD141EA00014FF000004FF0004CB6E749
:1008400011F4801F04BF01430020B4F1FD0C88BFE8
:10085000BCF5E06F3FF6AFAEB5EB030C04BFB6EBF3
:10086000020C5FEA500C50F1000041EB045170BDE6
:100870000EF0004E4EEA113114EB5C04C2BFD4EB13
:100880000C0541EA045170BD41F480114FF0000E97
:10089000013C90E645EA060E8DE60CEA135594EA13
:1008A0000C0F08BF95EA0C0F3FF43BAF94EA0C0F16
:1008B0000AD150EA01347FF434AF95EA0C0F7FF48B
:1008C00025AF104619462CE795EA0C0F06D152EADF
:1008D00003353FF4FDAE1046194622E750EA4106C3
:1008E00018BF52EA43067FF4C5AE50EA41047FF4D4
:1008F0000DAF52EA43057FF4EBAE12E74FF0FF3C39
:1009000006E000BF4FF0010C02E000BF4FF0010C09
:100910004DF804CD4FEA410C7FEA6C5C4FEA430C82
:1009200018BF7FEA6C5C1BD001B050EA410C0CBFD1
:1009300052EA430C91EA030F02BF90EA020F002033
:10094000704710F1000F91EA030F58BF994208BF9A
:1009500090422CBFD8176FEAE37040F00100704757
:100960004FEA410C7FEA6C5C02D150EA013C07D1AE
:100970004FEA430C7FEA6C5CD6D152EA033CD3D0F9
:100980005DF8040B704700BF8446104662468C46F3
:100990001946634600E000BF01B5FFF7B7FF002826
:1009A00048BF10F1000F01BD4DF808EDFFF7F4FF4F
:1009B0000CBF012000205DF808FB00BF4DF808EDDA
:1009C000FFF7EAFF34BF012000205DF808FB00BFFD
:1009D0004DF808EDFFF7E0FF94BF012000205DF81F
:1009E00008FB00BF4DF808EDFFF7CEFF94BF0120D4
:1009F00000205DF808FB00BF4DF808EDFFF7C4FFCD
:100A000034BF012000205DF808FB00BF4FEA410C15
:100A10007FEA6C5C02D150EA013C0AD14FEA430CF8
:100A20007FEA6C5C02D152EA033C02D14FF0000035
:100A300070474FF0010070474FEA410212F5001273
:100A400015D211D56FF47873B3EB625212D94FEA15
:100A5000C12343F0004343EA505311F0004F23FAFF
:100A600002F018BF404270474FF00000704750EA54
:100A7000013005D111F0004008BF6FF00040704711
:100A80004FF00000704700BF4FEA4102B2F1E0436F
:100A900024BFB3F5001CDCF1FE5C0DD901F0004C65
:100AA0004FEAC0024CEA5070B2F1004F40EB8300B5
:100AB00008BF20F00100704711F0804F21D113F1E1
:100AC0003872BCBF01F00040704741F480114FEA1A
:100AD0005252C2F11802C2F1200C10FA0CF320FAA3
:100AE00002F018BF40F001004FEAC1234FEAD323C0
:100AF00003FA0CFC40EA0C0023FA02F34FEA43032A
:100B0000CCE77FEA625307D150EA01331EBF4FF0B2
:100B1000FE4040F44000704701F0004040F0FE40CD
:100B200040F40000704700BF80F0004002E000BFCA
:100B300081F0004142001FBF5FEA410392EA030FC8
:100B40007FEA226C7FEA236C6AD04FEA1262D2EB12
:100B50001363C1BFD218414048404140B8BF5B4217
:100B6000192B88BF704710F0004F40F4000020F0B0
:100B70007F4018BF404211F0004F41F4000121F0C6
:100B80007F4118BF494292EA030F3FD0A2F1010210
:100B900041FA03FC10EB0C00C3F1200301FA03F14E
:100BA00000F0004302D5494260EB4000B0F5000F71
:100BB00013D3B0F1807F06D340084FEA310102F130
:100BC0000102FE2A51D2B1F1004F40EBC25008BFE2
:100BD00020F0010040EA03007047490040EB0000AC
:100BE000013A28BFB0F5000FEDD2B0FA80FCACF1AD
:100BF000080CB2EB0C0200FA0CF0AABF00EBC250DA
:100C000052421843BCBFD0401843704792F0000FC7
:100C100081F4000106BF80F400000132013BB5E71A
:100C20004FEA41037FEA226C18BF7FEA236C21D090
:100C300092EA030F04D092F0000F08BF08467047F5
:100C400090EA010F1CBF0020704712F07F4F04D1C3
:100C5000400028BF40F00040704712F100723CBFD6
:100C600000F50000704700F0004343F0FE4040F400
:100C7000000070477FEA226216BF08467FEA2363BE
:100C80000146420206BF5FEA412390EA010F40F4A9
:100C9000800070474FF0000304E000BF10F00043F5
:100CA00048BF40425FEA000C08BF704743F09643DC
:100CB00001464FF000001CE050EA010208BF7047F7
:100CC0004FF000030AE000BF50EA010208BF70477E
:100CD00011F0004302D5404261EB41015FEA010C93
:100CE00002BF84460146002043F0B64308BFA3F18B
:100CF0008053A3F50003BCFA8CF2083AA3EBC2536D
:100D000010DB01FA02FC634400FA02FCC2F120028B
:100D1000BCF1004F20FA02F243EB020008BF20F0C2
:100D20000100704702F1200201FA02FCC2F1200228
:100D300050EA4C0021FA02F243EB020008BF20EA1D
:100D4000DC7070474FF0FF0C1CEAD0521EBF1CEA4B
:100D5000D15392EA0C0F93EA0C0F6FD01A4480EA39
:100D6000010C400218BF5FEA41211ED04FF0006322
:100D700043EA501043EA5111A0FB01310CF000404E
:100D8000B1F5000F3EBF490041EAD3715B0040EA74
:100D9000010062F17F02FD2A1DD8B3F1004F40EB44
:100DA000C25008BF20F00100704790F0000F0CF017
:100DB000004C08BF49024CEA502040EA51207F3ADB
:100DC000C2BFD2F1FF0340EAC250704740F40000B6
:100DD0004FF00003013A5DDC12F1190FDCBF00F0A7
:100DE00000407047C2F10002410021FA02F1C2F155
:100DF000200200FA02FC5FEA310040F1000053EAF1
:100E00004C0308BF20EADC70704792F0000F00F03E
:100E1000004C02BF400010F4000F013AF9D040EA44
:100E20000C0093F0000F01F0004C02BF490011F4D8
:100E3000000F013BF9D041EA0C018FE70CEAD153D6
:100E400092EA0C0F18BF93EA0C0F0AD030F0004C56
:100E500018BF31F0004CD8D180EA010000F000400A
:100E6000704790F0000F17BF90F0004F084691F0C8
:100E7000000F91F0004F14D092EA0C0F01D1420202
:100E80000FD193EA0C0F03D14B0218BF084608D1CB
:100E900080EA010000F0004040F0FE4040F4000015
:100EA000704740F0FE4040F4400070474FF0FF0CA8
:100EB0001CEAD0521EBF1CEAD15392EA0C0F93EAEF
:100EC0000C0F69D0A2EB030280EA010C49024FEA41
:100ED000402037D04FF0805343EA111143EA1013FA
:100EE0000CF000408B4238BF5B0042F17D024FF4B2
:100EF000000C8B4224BF5B1A40EA0C00B3EB510F8D
:100F000024BFA3EB510340EA5C00B3EB910F24BF75
:100F1000A3EB910340EA9C00B3EBD10F24BFA3EBFA
:100F2000D10340EADC001B0118BF5FEA1C1CE0D1C2
:100F3000FD2A3FF650AF8B4240EBC25008BF20F075
:100F4000010070470CF0004C4CEA50207F32C2BFC9
:100F5000D2F1FF0340EAC250704740F400004FF066
:100F60000003013A37E792F0000F00F0004C02BF97
:100F7000400010F4000F013AF9D040EA0C0093F061
:100F8000000F01F0004C02BF490011F4000F013BBB
:100F9000F9D041EA0C0195E70CEAD15392EA0C0F23
:100FA00008D142027FF47DAF93EA0C0F7FF470AF5B
:100FB000084676E793EA0C0F04D14B023FF44CAF9E
:100FC00008466EE730F0004C18BF31F0004CCAD133
:100FD00030F000427FF45CAF31F000437FF43CAF6F
:100FE0005FE700BF4FEA4002B2F1FE4F0FD34FF070
:100FF0009E03B3EB12620DD94FEA002343F0004386
:1010000010F0004F23FA02F018BF404270474FF033
:101010000000704712F1610F01D1420205D110F0BA
:10102000004008BF6FF0004070474FF0000070476D
:1010300042000ED2B2F1FE4F0BD34FF09E03B3EB42
:10104000126209D44FEA002343F0004323FA02F06E
:1010500070474FF00000704712F1610F01D142025A
:1010600002D14FF0FF3070474FF00000704700BFD3
:10107000B0B584B000AFF860B9607A603B60796861
:10108000F868FFF755FD03461C46396A3868FFF7D4
:101090004FFD03461D467968B868FFF749FD0346D2
:1010A00019462846FFF702FF034619462046FFF778
:1010B00049FE03461846FFF795FF03461846FFF71B
:1010C000EDFD0346396A1846FFF734FD034618461E
:1010D000FFF7AEFF03469BB218461037BD46B0BDC2
:1010E00090B587B002AF78600B467B807B681B6849
:1010F0002F4A934244D12F4804F0DAF903469AB2BA
:101100002D4B1A802C4B1B881846FFF77BF926A322
:10111000D3E90023FFF7E0F902460B4610461946D3
:10112000FFF7B2FC0346254A1360234B1B881C467D
:10113000224B1B681846FFF777F902460B46CDE9AC
:10114000002322461E491F4804F05EFF0346DAB220
:101150001D4B1A701C4B1B789BB21A4619491B4831
:1011600003F0D6F97B88FB6007E0124AFB68134462
:1011700000221A70FB680133FB60FB68312BF4DD41
:1011800032220C49114803F033FA114B1B681A68DC
:101190000F4B1B6822F004021A6000BF1437BD46D3
:1011A00090BD00BFAFF30080B4D934E70C684A3F6C
:1011B0000038014078030020420300203C03002057
:1011C000C082000844030020AA0300206802002017
:1011D000F402002080B582B002AF00F0BDFC00F048
:1011E00049F800F0D1F900F0A9F900F09FF800F0FB
:1011F000DBF800F079F9164800F0E8FD0021154809
:1012000002F0B6FB32221449144803F0F1F9144BF2
:101210001B681A68124B1B6822F004021A60114BFB
:101220001B881846FFF736FD4FF0000300930E4B66
:101230004FF000020D49FFF71BFF03461A460C4B07
:101240001A800B4B1A88034B1B685A63E7E700BFF1
:10125000F001002020020020780300206802002016
:10126000F4020020420300200000C64200F07F4547
:101270004003002080B594B000AF07F12803282276
:101280000021184604F023FF07F1140300221A601E
:101290005A609A60DA601A613B1D00221A605A6037
:1012A0009A60DA600123BB624FF48033FB62002353
:1012B0003B630123BB6302237B644FF48033BB6435
:1012C0004FF4E013FB6407F12803184601F0E2FD38
:1012D0000346002B01D000F079F90F237B61022334
:1012E000BB610023FB614FF480633B6200237B62A0
:1012F00007F114030221184602F04EF80346002BB2
:1013000001D000F063F902237B604FF40043FB60DF
:101310003B1D184602F0CEF90346002B01D000F029
:1013200055F900BF5037BD4680BD000080B584B080
:1013300000AF3B1D00221A605A609A60184B194A90
:101340001A60174B00229A60154B01221A73144B36
:1013500000221A75124B4FF46022DA61104B002202
:101360005A600F4B01221A610D4800F057FC0346EA
:10137000002B01D000F02AF900237B600123BB6021
:101380000523FB603B1D1946054800F0B3FE0346EC
:10139000002B01D000F01AF900BF1037BD4680BD08
:1013A000F00100200024014080B596B000AF07F1A5
:1013B000480300221A605A609A60DA6007F140031D
:1013C00000221A605A6007F1240300221A605A6052
:1013D0009A60DA601A615A619A613B1D20220021ED
:1013E000184604F074FE3E4B3E4A1A603C4B4722BE
:1013F0005A603B4B00229A60394B6322DA60384BCB
:1014000000221A61364B00225A61354B00229A6144
:10141000334802F005FA0346002B01D000F0D6F85D
:101420004FF48053BB6407F1480319462C4802F07F
:1014300003FC0346002B01D000F0C8F8284802F056
:101440003EFA0346002B01D000F0C0F800233B64B5
:1014500000237B6407F140031946214802F058FF3E
:101460000346002B01D000F0B1F860237B6200231B
:10147000BB620023FB6200233B6300237B630023EA
:10148000BB630023FB6307F12403002219461448C1
:1014900002F010FB0346002B01D000F097F8002368
:1014A0007B600023BB600023FB6000233B610023C3
:1014B0007B614FF40053BB6100233B623B1D194627
:1014C000074802F083FF0346002B01D000F07EF8AE
:1014D000034800F015F900BF5837BD4680BD00BF76
:1014E00020020020002C014080B500AF114B124AB1
:1014F0001A60104B4FF4E1325A600E4B00229A6092
:101500000C4B0022DA600B4B00221A61094B0C22B3
:101510005A61084B00229A61064B0022DA610548A5
:1015200002F0A5FF0346002B01D000F04FF800BFEA
:1015300080BD00BF680200200038014080B582B045
:1015400000AF104B5B690F4A43F0010353610D4B31
:101550005B6903F001037B607B68002200210E20A1
:1015600001F03BF80E2001F054F8002200210F207A
:1015700001F033F80F2001F04CF800BF0837BD46EA
:1015800080BD00BF0010024080B483B000AF0E4B9E
:101590009B690D4A43F0200393610B4B9B6903F059
:1015A00020037B607B68084B9B69074A43F0040378
:1015B0009361054B9B6903F004033B603B6800BFEC
:1015C0000C37BD4680BC70470010024080B400AFAD
:1015D00072B600BFFEE7000080B485B000AF154BC7
:1015E0009B69144A43F001039361124B9B6903F01A
:1015F0000103BB60BB680F4BDB690E4A43F08053AD
:10160000D3610C4BDB6903F080537B607B680A4B32
:101610005B68FB60FB6823F0E063FB60FB6843F002
:101620000073FB60044AFB68536000BF1437BD467B
:1016300080BC7047001002400000014080B588B0B7
:1016400000AF786007F1100300221A605A609A60B8
:10165000DA607B681B68184A934229D1174B9B6953
:10166000164A43F400739361144B9B6903F40073AF
:10167000FB60FB68114B9B69104A43F004039361C4
:101680000E4B9B6903F00403BB60BB6801233B6105
:1016900003237B6107F110031946094801F076FA2C
:1016A00000220021122000F098FF122000F0B1FF6C
:1016B00000BF2037BD4680BD00240140001002401D
:1016C0000008014080B485B000AF78607B681B687B
:1016D000094A93420BD1094B9B69084A43F40063C2
:1016E0009361064B9B6903F40063FB60FB6800BFDA
:1016F0001437BD4680BC7047002C014000100240EA
:1017000080B588B000AF786007F1100300221A603E
:101710005A609A60DA607B681B68104A934218D15D
:101720000F4B9B690E4A43F0040393610C4B9B697A
:1017300003F00403FB60FB684FF480733B610223FA
:101740007B610223FB6107F110031946054801F094
:101750001DFA00BF2037BD4680BD00BF002C0140F0
:10176000001002400008014080B588B000AF7860EA
:1017700007F1100300221A605A609A60DA607B68F1
:101780001B68484A934240F08880474B9B69464A11
:1017900043F480439361444B9B6903F48043FB60B3
:1017A000FB68414B9B69404A43F0040393613E4B05
:1017B0009B6903F00403BB60BB684FF400733B619B
:1017C00002237B610323FB6107F1100319463748AD
:1017D00001F0DCF94FF480633B6100237B6100235F
:1017E000BB6107F110031946304801F0CFF9304BC7
:1017F000304A1A602E4B10225A602D4B00229A60FC
:101800002B4B8022DA602A4B00221A61284B0022DF
:101810005A61274B00229A61254B4FF48052DA61BE
:10182000234800F011FF0346002B01D0FFF7CEFE46
:101830007B681F4A9A631E4A7B6853621E4B1F4A8D
:101840001A601D4B00225A601B4B00229A601A4BF3
:101850008022DA60184B00221A61174B00225A616D
:10186000154B00229A61144B4FF48052DA611248F2
:1018700000F0EAFE0346002B01D0FFF7A7FE7B68CD
:101880000D4ADA630C4A7B6853620022002125204E
:1018900000F0A3FE252000F0BCFE00BF2037BD46AF
:1018A00080BD00BF00380140001002400008014028
:1018B000B002002044000240F40200205800024020
:1018C00080B400AFFEE780B400AFFEE780B400AFA5
:1018D000FEE780B400AFFEE780B400AFFEE780B45F
:1018E00000AF00BFBD4680BC704780B400AF00BFF2
:1018F000BD4680BC704780B400AF00BFBD4680BC11
:10190000704780B500AF00F06DF900BF80BD0000EA
:1019100080B500AF024801F005F800BF80BD00BFF0
:10192000B002002080B500AF024800F0FBFF00BF0E
:1019300080BD00BFF402002080B500AF094B1B68DA
:101940001B6803F00203022B06D1064800F0F4FAEC
:1019500003469AB2044B1A80024800F0F9FA00BF1D
:1019600080BD00BFF00100203803002080B500AF2B
:10197000024802F09BFE00BF80BD00BF680200204D
:1019800080B400AF01231846BD4680BC704780B5C7
:1019900082B000AF7860396004F0ECFB0346162299
:1019A0001A604FF0FF3318460837BD4680BD80B53A
:1019B00082B000AF78604FF0FF317868FFF7E7FF43
:1019C000FEE780B586B000AFF860B9607A600023AA
:1019D0007B610AE0AFF300800146BB685A1CBA6025
:1019E000CAB21A707B6901337B617A697B689A425B
:1019F000F0DB7B6818461837BD4680BD80B586B0E1
:101A000000AFF860B9607A6000237B6109E0BB68D1
:101A10005A1CBA601B781846AFF300807B6901330B
:101A20007B617A697B689A42F1DB7B6818461837DC
:101A3000BD4680BD80B483B000AF78604FF0FF3307
:101A400018460C37BD4680BC704780B483B000AFE9
:101A5000786039603B684FF400525A6000231846A2
:101A60000C37BD4680BC704780B483B000AF78604F
:101A7000012318460C37BD4680BC704780B485B042
:101A800000AFF860B9607A60002318461437BD468D
:101A900080BC704780B586B000AF7860144A154BA3
:101AA000D31A7B617B693B61134B1B68002B02D10E
:101AB000114B124A1A60104B1A687B6813443A693A
:101AC0009A4207D204F056FB03460C221A604FF0EC
:101AD000FF3309E0084B1B68FB60074B1A687B6803
:101AE0001344054A1360FB6818461837BD4680BD8D
:101AF0000050002000040000AC030020000500207E
:101B000080B400AF00BFBD4680BC7047FFF7F8FF50
:101B10000B480C490C4A002302E0D458C45004334B
:101B2000C4188C42F9D3094A094C002301E0136020
:101B30000432A242FBD304F023FBFFF74BFB7047B8
:101B400000000020D401002084860008D401002079
:101B500000050020FEE7000080B500AF084B1B68C1
:101B6000074A43F010031360032000F02BFD0F2001
:101B700000F008F8FFF730FD0023184680BD00BFD5
:101B80000020024080B582B000AF7860124B1A6826
:101B9000124B1B7819464FF47A73B3FBF1F3B2FB87
:101BA000F3F3184600F043FD0346002B01D0012358
:101BB0000EE07B680F2B0AD8002279684FF0FF30C7
:101BC00000F00BFD064A7B681360002300E0012350
:101BD00018460837BD4680BD0000002008000020E0
:101BE0000400002080B400AF054B1B781A46054B5B
:101BF0001B681344034A136000BFBD4680BC704796
:101C000008000020B003002080B400AF024B1B6826
:101C10001846BD4680BC7047B003002080B586B032
:101C200000AF78600023FB7500233B610023BB609D
:101C30000023FB607B68002B01D10123BEE07B68A1
:101C40009B68002B7B689B6A002B09D17B68002274
:101C5000DA627B68002283F824207868FFF7EEFCC4
:101C6000786800F099FB0346FB757B689B6A03F07C
:101C70001003002B40F09980FB7D002B40F09580F5
:101C80007B689B6A23F4885323F0020343F002022B
:101C90007B689A627B685A687B68DB691A437B6859
:101CA0001B7B5B001343BA681343BB607B689B6874
:101CB000B3F5807F03D07B689B68012B02D14FF482
:101CC000807300E000233A6913433B617B681B7D0E
:101CD000012B19D17B681B7B002B09D17B689B6989
:101CE000013B5A033B69134343F400633B610BE040
:101CF0007B689B6A43F020027B689A627B68DB6AA0
:101D000043F001027B68DA627B681B685B6823F43E
:101D100069417B681B683A690A435A607B681B68A3
:101D20009A68284B13407A681268B9680B4393602D
:101D30007B689B68B3F5807F03D07B689B68012B31
:101D400004D17B681B69013B1B05FB607B681B683A
:101D5000DB6A23F470017B681B68FA680A43DA6265
:101D60007B681B689A68184B1340BA689A420BD17B
:101D70007B680022DA627B689B6A23F0030343F0EE
:101D800001027B689A6218E07B689B6A23F0120369
:101D900043F010027B689A627B68DB6A43F00102C1
:101DA0007B68DA620123FB7507E07B689B6A43F07E
:101DB00010027B689A620123FB75FB7D1846183779
:101DC000BD4680BDFDF7E1FFFE0E1FFF80B584B06C
:101DD00000AF78600023FB737B6893F82430012BFD
:101DE00001D10223A0E07B68012283F824207868D7
:101DF00000F078FA0346FB73FB7B002B40F08F80EA
:101E00007B689B6A23F4706323F0010343F48072C0
:101E10007B689A627B681B68454A934205D1454BB3
:101E20005B6803F47023002B15D17B689B6A23F455
:101E300080127B689A627B681B685B6803F480632E
:101E4000002B26D07B689B6A23F4405343F48052D6
:101E50007B689A621DE07B689B6A43F480127B6812
:101E60009A627B681B68334A934204D07B681B6884
:101E70002F4A93420DD12F4B5B6803F48063002BF4
:101E800007D07B689B6A23F4405343F480527B68FD
:101E90009A627B689B6A03F48053002B06D07B68B0
:101EA000DB6A23F006027B68DA6202E07B680022CC
:101EB000DA627B68002283F824207B681B686FF05D
:101EC00002021A607B681B685A687B681B6842F0D4
:101ED00020025A607B681B689B6803F46023B3F59B
:101EE000602F13D17B681B68114A934205D1114BB7
:101EF0005B6803F47023002B08D17B681B689A6829
:101F00007B681B6842F4A0029A600CE07B681B6847
:101F10009A687B681B6842F480129A6003E07B68D1
:101F2000002283F82420FB7B18461037BD4680BD75
:101F3000002801400024014080B483B000AF7860E5
:101F40007B681B68DB6C18460C37BD4680BC70474D
:101F500080B584B000AF78607B681B681B68FB604D
:101F60007B681B685B68BB60BB6803F02003002BC9
:101F70003ED0FB6803F00203002B39D07B689B6ADC
:101F800003F01003002B05D17B689B6A43F40072B9
:101F90007B689A627B681B689B6803F46023B3F5D7
:101FA000602F1DD17B681B7B002B19D17B681B68C0
:101FB0005A687B681B6822F020025A607B689B6A23
:101FC00023F480727B689A627B689B6A03F4805377
:101FD000002B05D17B689B6A43F001027B689A6203
:101FE000786800F074F87B681B686FF012021A6062
:101FF000BB6803F08003002B4DD0FB6803F00403A3
:10200000002B48D07B689B6A03F01003002B05D19E
:102010007B689B6A43F400527B689A627B681B680A
:102020009B6803F4E043B3F5E04F12D07B681B6874
:102030005B6803F48063002B25D17B681B689B6879
:1020400003F46023B3F5602F1DD17B681B7B002B4D
:1020500019D17B681B685A687B681B6822F0800274
:102060005A607B689B6A23F480527B689A627B6823
:102070009B6A03F48073002B05D17B689B6A43F055
:1020800001027B689A62786800F0C7F97B681B6878
:102090006FF00C021A60BB6803F04003002B12D0F3
:1020A000FB6803F00103002B0DD07B689B6A43F4AF
:1020B00080327B689A62786800F012F87B681B684F
:1020C0006FF001021A6000BF1037BD4680BD80B4BA
:1020D00083B000AF786000BF0C37BD4680BC70474E
:1020E00080B483B000AF786000BF0C37BD4680BCC1
:1020F0007047000080B485B000AF7860396000237D
:10210000FB730023BB607B6893F82430012B01D163
:102110000223DCE07B68012283F824203B685B68B3
:10212000062B1CD87B681B68596B3B685A681346A2
:102130009B001344053B1F2202FA03F3DB431940C3
:102140003B6818683B685A6813469B001344053B7C
:1021500000FA03F27B681B680A435A633CE03B6861
:102160005B680C2B1CD87B681B68196B3B685A6832
:1021700013469B001344233B1F2202FA03F3DB4365
:1021800019403B6818683B685A6813469B00134423
:10219000233B00FA03F27B681B680A431A631BE0C7
:1021A0007B681B68D96A3B685A6813469B001344D6
:1021B000413B1F2202FA03F3DB4319403B681868D6
:1021C0003B685A6813469B001344413B00FA03F2F4
:1021D0007B681B680A43DA623B681B68092B1CD9C1
:1021E0007B681B68D9683B681A6813465B00134418
:1021F0001E3B072202FA03F3DB4319403B68986851
:102200003B681A6813465B0013441E3B00FA03F256
:102210007B681B680A43DA6019E07B681B681969F0
:102220003B681A6813465B001344072202FA03F363
:10223000DB4319403B6898683B681A6813465B00AB
:10224000134400FA03F27B681B680A431A613B6877
:102250001B68102B03D03B681B68112B32D17B68A5
:102260001B681D4A934225D17B681B689B6803F459
:102270000003002B26D17B681B689A687B681B686B
:1022800042F400029A603B681B68102B1AD1134B72
:102290001B68134AA2FB03239A0C13469B001344AA
:1022A0005B00BB6002E0BB68013BBB60BB68002B0E
:1022B000F9D107E07B689B6A43F020027B689A6251
:1022C0000123FB737B68002283F82420FB7B1846E4
:1022D0001437BD4680BC7047002401400000002038
:1022E00083DE1B4380B584B000AF78600023FB60C1
:1022F0000023BB607B681B689B6803F00103012B14
:1023000040D07B681B689A687B681B6842F00102BA
:102310009A601F4B1B681F4AA2FB03239B0CBB60E8
:1023200002E0BB68013BBB60BB68002BF9D1FFF743
:102330006BFCF8601FE0FFF767FC0246FB68D31AEE
:10234000022B18D97B681B689B6803F00103012BE3
:1023500011D07B689B6A43F010027B689A627B68AD
:10236000DB6A43F001027B68DA627B68002283F853
:102370002420012307E07B681B689B6803F00103AE
:10238000012BD8D1002318461037BD4680BD00BFB1
:102390000000002083DE1B4380B584B000AF78606E
:1023A0000023FB607B681B689B6803F00103012B23
:1023B0002ED17B681B689A687B681B6822F001023B
:1023C0009A60FFF721FCF8601BE0FFF71DFC024656
:1023D000FB68D31A022B14D97B681B689B6803F037
:1023E0000103012B0DD17B689B6A43F010027B68CF
:1023F0009A627B68DB6A43F001027B68DA62012340
:1024000007E07B681B689B6803F00103012BDCD0AD
:10241000002318461037BD4680BD80B483B000AF9E
:10242000786000BF0C37BD4680BC704780B485B073
:1024300000AF78607B6803F00703FB600C4BDB6840
:10244000BB60BA684FF6FF031340BB60FB681A021B
:10245000BB68134343F0BF6343F40033BB60044ADB
:10246000BB68D36000BF1437BD4680BC704700BF57
:1024700000ED00E080B400AF044BDB681B0A03F002
:1024800007031846BD4680BC704700BF00ED00E062
:1024900080B483B000AF0346FB7197F90730002B7F
:1024A0000BDBFB7903F01F02064997F907305B0944
:1024B000012000FA02F241F8232000BF0C37BD468C
:1024C00080BC704700E100E080B483B000AF0346F9
:1024D0003960FB7197F90730002B0ADB3B68DAB2F1
:1024E0000C4997F907301201D2B20B4483F800234C
:1024F0000AE03B68DAB20849FB7903F00F03043BBA
:102500001201D2B20B441A7600BF0C37BD4680BC14
:10251000704700BF00E100E000ED00E080B489B04A
:1025200000AFF860B9607A60FB6803F00703FB61F5
:10253000FB69C3F10703042B28BF0423BB61FB69BC
:102540000433062B02D9FB69033B00E000237B61C7
:102550004FF0FF32BB6902FA03F3DA43BB681A405B
:102560007B699A404FF0FF317B6901FA03F3D9434D
:102570007B680B40134318462437BD4680BC704728
:1025800080B582B000AF78607B68013BB3F1807F9B
:1025900001D301230FE00A4A7B68013B53600F21FE
:1025A0004FF0FF30FFF790FF054B00229A60044B7D
:1025B00007221A60002318460837BD4680BD00BFB9
:1025C00010E000E080B582B000AF78607868FFF777
:1025D0002DFF00BF0837BD4680BD80B586B000AF77
:1025E0000346B9607A60FB7300237B61FFF742FF0B
:1025F00078617A68B9687869FFF790FF024697F9C1
:102600000F3011461846FFF75FFF00BF1837BD4671
:1026100080BD80B582B000AF0346FB7197F90730EB
:102620001846FFF735FF00BF0837BD4680BD80B5AF
:1026300082B000AF78607868FFF7A2FF03461846C3
:102640000837BD4680BD000080B485B000AF78601B
:102650000023FB607B68002B01D1012343E07B68F2
:102660001B681A46224B1344224AA2FB03231B0970
:102670009A007B681A647B681F4ADA637B680222CF
:1026800083F821207B681B681B68FB60FB6823F4D0
:102690007F5323F03003FB607B685A687B689B683C
:1026A0001A437B68DB681A437B681B691A437B68A3
:1026B0005B691A437B689B691A437B68DB69134338
:1026C000FA681343FB607B681B68FA681A607B68D2
:1026D00000229A637B68012283F821207B68002214
:1026E00083F82020002318461437BD4680BC70476D
:1026F000F8FFFDBFCDCCCCCC0000024080B586B049
:1027000000AFF860B9607A603B600023FB75FB683E
:1027100093F82030012B01D102234BE0FB6801220A
:1027200083F82020FB6893F82130DBB2012B3AD1EB
:10273000FB68022283F82120FB6800229A63FB6871
:102740001B681A68FB681B6822F001021A603B686C
:102750007A68B968F86800F0EBF9FB68DB6A002B6F
:1027600008D0FB681B681A68FB681B6842F00E0201
:102770001A600FE0FB681B681A68FB681B6822F090
:1027800004021A60FB681B681A68FB681B6842F049
:102790000A021A60FB681B681A68FB681B6842F033
:1027A00001021A6005E0FB68002283F82020022362
:1027B000FB75FB7D18461837BD4680BD80B485B0DB
:1027C00000AF78600023FB737B6893F82130DBB2A5
:1027D000022B08D07B6804229A637B68002283F86E
:1027E0002020012320E07B681B681A687B681B6837
:1027F00022F00E021A607B681B681A687B681B68EF
:1028000022F001021A607B681A6C7B68DB6B012185
:1028100001FA02F25A607B68012283F821207B686A
:10282000002283F82020FB7B18461437BD4680BC6D
:102830007047000080B584B000AF78600023FB7360
:102840007B6893F82130DBB2022B05D07B68042231
:102850009A630123FB7351E07B681B681A687B68ED
:102860001B6822F00E021A607B681B681A687B687E
:102870001B6822F001021A607B681B68224A93429F
:1028800029D07B681B68214A934222D07B681B6851
:102890001F4A93421AD07B681B681E4A934212D08B
:1028A0007B681B681C4A93420AD07B681B681B4AE2
:1028B000934202D14FF480130EE04FF080730BE08F
:1028C0004FF4803308E04FF4805305E04FF48073F9
:1028D00002E0102300E00123114A53607B680122CB
:1028E00083F821207B68002283F820207B685B6BC3
:1028F000002B03D07B685B6B78689847FB7B18469E
:102900001037BD4680BD00BF080002401C000240D9
:102910003000024044000240580002406C00024077
:102920000000024080B584B000AF78607B68DB6B4C
:102930001B68FB607B681B681B68BB607B681B6C4B
:1029400004229A40FB681340002B4FD0BB6803F071
:102950000403002B4AD07B681B681B6803F020032C
:10296000002B07D17B681B681A687B681B6822F004
:1029700004021A607B681B68664A934229D07B6810
:102980001B68654A934222D07B681B68634A934266
:102990001AD07B681B68624A934212D07B681B681E
:1029A000604A93420AD07B681B685F4A934202D117
:1029B0004FF480030EE04FF080630BE04FF4802370
:1029C00008E04FF4804305E04FF4806302E04023C9
:1029D00000E00423554A53607B68DB6A002B00F05B
:1029E00094807B68DB6A786898478EE07B681B6C14
:1029F00002229A40FB681340002B56D0BB6803F0BC
:102A00000203002B51D07B681B681B6803F0200376
:102A1000002B0BD17B681B681A687B681B6822F04F
:102A20000A021A607B68012283F821207B681B68F8
:102A3000384A934229D07B681B68374A934222D098
:102A40007B681B68354A93421AD07B681B68344AFE
:102A5000934212D07B681B68324A93420AD07B684B
:102A60001B68314A934202D14FF400130EE04FF03D
:102A700000730BE04FF4003308E04FF4005305E01F
:102A80004FF4007302E0202300E00223274A536042
:102A90007B68002283F820207B689B6A002B34D05F
:102AA0007B689B6A786898472FE07B681B6C0822DC
:102AB0009A40FB681340002B28D0BB6803F0080342
:102AC000002B23D07B681B681A687B681B6822F088
:102AD0000E021A607B681A6C7B68DB6B012101FABD
:102AE00002F25A607B6801229A637B68012283F8B4
:102AF00021207B68002283F820207B681B6B002B41
:102B000004D07B681B6B7868984700BF00BF103704
:102B1000BD4680BD080002401C000240300002405B
:102B200044000240580002406C0002400000024095
:102B300080B485B000AFF860B9607A603B60FB6834
:102B40001A6CFB68DB6B012101FA02F25A60FB6828
:102B50001B683A685A60FB685B68102B08D1FB68F9
:102B60001B687A689A60FB681B68BA68DA6007E0DD
:102B7000FB681B68BA689A60FB681B687A68DA6051
:102B800000BF1437BD4680BC7047000080B48BB0D6
:102B900000AF7860396000237B6200233B6269E10B
:102BA00001227B6A02FA03F3FB613B681B68FA6946
:102BB0001340BB61BA69FB699A4240F058813B6897
:102BC0005B689A4A93425ED0984A934275D8984A75
:102BD000934258D0964A93426FD8964A934252D025
:102BE000944A934269D8944A93424CD0924A934271
:102BF00063D8924A934246D0904A93425DD8122BB2
:102C00002AD8122B59D801A252F823F0872C000899
:102C1000612C0008732C0008B52C0008BB2C0008A0
:102C2000BB2C0008BB2C0008BB2C0008BB2C0008E8
:102C3000BB2C0008BB2C0008BB2C0008BB2C0008D8
:102C4000BB2C0008BB2C0008BB2C0008BB2C0008C8
:102C5000692C00087D2C0008794A934213D02CE09F
:102C60003B68DB683B6229E03B68DB6804333B621E
:102C700024E03B68DB6808333B621FE03B68DB68AD
:102C80000C333B621AE03B689B68002B02D10423A3
:102C90003B6213E03B689B68012B05D108233B6234
:102CA0007B68FA691A6109E008233B627B68FA696C
:102CB0005A6103E000233B6200E000BFBB69FF2BC9
:102CC00001D87B6801E07B6804337B61BB69FF2B23
:102CD00002D87B6A9B0002E07B6A083B9B003B6159
:102CE0007B691A680F213B6901FA03F3DB431A4041
:102CF000396A3B6901FA03F31A437B691A603B683E
:102D00005B6803F08053002B00F0B1804D4B9B6952
:102D10004C4A43F0010393614A4B9B6903F0010362
:102D2000BB60BB68484A7B6A9B08023352F8233079
:102D3000FB607B6A03F003039B000F2202FA03F39C
:102D4000DB43FA681340FB607B68404A934213D030
:102D50007B683F4A93420DD07B683E4A934207D03E
:102D60007B683D4A934201D1032306E0042304E03B
:102D7000022302E0012300E000237A6A02F003024A
:102D800092009340FA681343FB602F497B6A9B08CB
:102D90000233FA6841F823203B685B6803F4801330
:102DA000002B06D02D4B9A682C49BB6913438B60CE
:102DB00006E02A4B9A68BB69DB43284913408B60C5
:102DC0003B685B6803F40013002B06D0234BDA68E2
:102DD0002249BB691343CB6006E0204BDA68BB692C
:102DE000DB431E491340CB603B685B6803F4003350
:102DF000002B06D0194B5A681849BB6913434B6026
:102E000006E0164B5A68BB69DB43144913404B601C
:102E10003B685B6803F48033002B21D00F4B1A68AA
:102E20000E49BB6913430B6021E000BF0000321064
:102E300000003110000022100000211000001210CC
:102E40000000111000100240000001400008014085
:102E5000000C01400010014000140140000401403A
:102E60000B4B1A68BB69DB43094913400B607B6A53
:102E700001337B623B681A687B6A22FA03F3002BFA
:102E80007FF48EAE00BF00BF2C37BD4680BC7047BC
:102E90000004014080B586B000AF78607B68002BED
:102EA00001D1012372E27B681B6803F00103002B50
:102EB00000F08780924B5B6803F00C03042B0CD06E
:102EC0008F4B5B6803F00C03082B12D18C4B5B68B3
:102ED00003F48033B3F5803F0BD1894B1B6803F4B7
:102EE0000033002B6CD07B685B68002B68D101231A
:102EF0004CE27B685B68B3F5803F06D1804B1B6872
:102F00007F4A43F4803313602EE07B685B68002BBC
:102F10000CD17B4B1B687A4A23F480331360784BC7
:102F20001B68774A23F4802313601DE07B685B688D
:102F3000B3F5A02F0CD1724B1B68714A43F4802368
:102F400013606F4B1B686E4A43F4803313600BE0D1
:102F50006B4B1B686A4A23F480331360684B1B6811
:102F6000674A23F4802313607B685B68002B13D0CF
:102F7000FEF74AFE386108E0FEF746FE02463B696E
:102F8000D31A642B01D9032300E25D4B1B6803F4C1
:102F90000033002BF0D014E0FEF736FE386108E075
:102FA000FEF732FE02463B69D31A642B01D9032394
:102FB000ECE1534B1B6803F40033002BF0D100E02D
:102FC00000BF7B681B6803F00203002B63D04C4BEF
:102FD0005B6803F00C03002B0BD0494B5B6803F0DC
:102FE0000C03082B1CD1464B5B6803F48033002B89
:102FF00016D1434B1B6803F00203002B05D07B68FE
:103000001B69012B01D00123C0E13D4B1B6823F05C
:10301000F8027B685B69DB00394913430B603AE0D7
:103020007B681B69002B20D0364B01221A60FEF70B
:10303000EBFD386108E0FEF7E7FD02463B69D31A75
:10304000022B01D90323A1E12D4B1B6803F00203DE
:10305000002BF0D02A4B1B6823F0F8027B685B69D9
:10306000DB00274913430B6015E0264B00221A6052
:10307000FEF7CAFD386108E0FEF7C6FD02463B696F
:10308000D31A022B01D9032380E11D4B1B6803F0E7
:103090000203002BF0D17B681B6803F00803002BB0
:1030A0003AD07B689B69002B19D0174B01221A601C
:1030B000FEF7AAFD386108E0FEF7A6FD02463B696F
:1030C000D31A022B01D9032360E10D4B5B6A03F095
:1030D0000203002BF0D0012000F0CEFA1CE00A4BD6
:1030E00000221A60FEF790FD38610FE0FEF78CFDBC
:1030F00002463B69D31A022B08D9032346E100BFDD
:10310000001002400000424280044242924B5B6A3F
:1031100003F00203002BE9D17B681B6803F0040372
:10312000002B00F0A6800023FB758B4BDB6903F0BE
:103130008053002B0DD1884BDB69874A43F08053C5
:10314000D361854BDB6903F08053BB60BB6801230F
:10315000FB75824B1B6803F48073002B18D17F4BE7
:103160001B687E4A43F480731360FEF74DFD38619F
:1031700008E0FEF749FD02463B69D31A642B01D9EA
:10318000032303E1754B1B6803F48073002BF0D01D
:103190007B68DB68012B06D16F4B1B6A6E4A43F0DC
:1031A000010313622DE07B68DB68002B0CD16A4BB6
:1031B0001B6A694A23F001031362674B1B6A664A64
:1031C00023F0040313621CE07B68DB68052B0CD141
:1031D000614B1B6A604A43F0040313625E4B1B6A37
:1031E0005D4A43F0010313620BE05B4B1B6A5A4AD2
:1031F00023F001031362584B1B6A574A23F0040360
:1032000013627B68DB68002B15D0FEF7FDFC38618C
:103210000AE0FEF7F9FC02463B69D31A41F2883214
:10322000934201D90323B1E04B4B1B6A03F0020325
:10323000002BEED014E0FEF7E7FC38610AE0FEF761
:10324000E3FC02463B69D31A41F28832934201D92A
:1032500003239BE0404B1B6A03F00203002BEED1DB
:10326000FB7D012B05D13C4BDB693B4A23F08053AE
:10327000D3617B68DB69002B00F08780364B5B688D
:1032800003F00C03082B61D07B68DB69022B46D16D
:10329000334B00221A60FEF7B7FC386108E0FEF7F6
:1032A000B3FC02463B69D31A022B01D903236DE01C
:1032B000294B1B6803F00073002BF0D17B681B6A5D
:1032C000B3F5803F08D1244B5B6823F400327B6860
:1032D0009B68214913434B601F4B5B6823F47412B6
:1032E0007B68196A7B685B6A0B431B4913434B601D
:1032F0001B4B01221A60FEF787FC386108E0FEF7DD
:1033000083FC02463B69D31A022B01D903233DE01B
:10331000114B1B6803F00073002BF0D035E0104B0D
:1033200000221A60FEF770FC386108E0FEF76CFCC2
:1033300002463B69D31A022B01D9032326E0064B30
:103340001B6803F00073002BF0D11EE07B68DB6983
:10335000012B07D1012319E000100240007000404A
:10336000600042420B4B5B68FB60FB6803F48032F9
:103370007B681B6A9A4206D1FB6803F470127B6873
:103380005B6A9A4201D0012300E0002318461837F7
:10339000BD4680BD0010024080B584B000AF7860AB
:1033A00039607B68002B01D10123D0E06A4B1B6898
:1033B00003F007033A689A4210D9674B1B6823F061
:1033C000070265493B6813430B60634B1B6803F0BE
:1033D00007033A689A4201D00123B8E07B681B6872
:1033E00003F00203002B20D07B681B6803F004036A
:1033F000002B05D0594B5B68584A43F4E063536097
:103400007B681B6803F00803002B05D0534B5B68F7
:10341000524A43F460535360504B5B6823F0F00210
:103420007B689B684D4913434B607B681B6803F0C6
:103430000103002B40D07B685B68012B07D1474B11
:103440001B6803F40033002B15D101237FE07B6858
:103450005B68022B07D1414B1B6803F00073002B04
:1034600009D1012373E03D4B1B6803F00203002BDD
:1034700001D101236BE0394B5B6823F003027B68C9
:103480005B68364913434B60FEF7BEFBF8600AE009
:10349000FEF7BAFB0246FB68D31A41F28832934228
:1034A00001D9032353E02D4B5B6803F00C027B68CA
:1034B0005B689B009A42EBD1274B1B6803F0070324
:1034C0003A689A4210D2244B1B6823F00702224923
:1034D0003B6813430B60204B1B6803F007033A68FB
:1034E0009A4201D0012332E07B681B6803F0040399
:1034F000002B08D0194B5B6823F4E0627B68DB6823
:10350000164913434B607B681B6803F00803002BCC
:1035100009D0124B5B6823F460527B681B69DB00A7
:103520000E4913434B6000F021F802460B4B5B68D9
:103530001B0903F00F030A49CB5C22FA03F3094A83
:103540001360094B1B681846FEF71CFB0023184646
:103550001037BD4680BD00BF002002400010024071
:10356000DC820008000000200400002080B487B046
:1035700000AF0023FB600023BB6000237B610023BE
:103580007B6000233B611E4B5B68FB60FB6803F0C4
:103590000C03042B02D0082B03D027E0194B3B610E
:1035A00027E0FB689B0C03F00F03174AD35C7B609A
:1035B000FB6803F48033002B10D0114B5B685B0C6D
:1035C00003F00103114AD35CBB607B680D4A03FB27
:1035D00002F2BB68B2FBF3F37B6104E07B680C4A48
:1035E00002FB03F37B617B693B6102E0054B3B61BE
:1035F00000BF3B6918461C37BD4680BC704700BF02
:103600000010024000127A00F482000804830008CF
:1036100000093D0080B400AF024B1B681846BD4650
:1036200080BC70470000002080B500AFFFF7F2FFBC
:103630000246054B5B681B0A03F007030349CB5C9A
:1036400022FA03F3184680BD00100240EC82000805
:1036500080B500AFFFF7DEFF0246054B5B68DB0A73
:1036600003F007030349CB5C22FA03F3184680BD3D
:1036700000100240EC82000880B485B000AF786092
:103680000A4B1B680A4AA2FB03235B0A7A6802FB07
:1036900003F3FB6000BFFB685A1EFA60002BF9D1F0
:1036A00000BF00BF1437BD4680BC7047000000203B
:1036B000D34D621080B586B000AF786000233B61C7
:1036C0000023FB607B681B6803F00103002B7DD0A7
:1036D0000023FB754F4BDB6903F08053002B0DD1AA
:1036E0004C4BDB694B4A43F08053D361494BDB6958
:1036F00003F08053BB60BB680123FB75464B1B681E
:1037000003F48073002B18D1434B1B68424A43F4E7
:1037100080731360FEF778FA386108E0FEF774FAF8
:1037200002463B69D31A642B01D903236DE03A4B5F
:103730001B6803F48073002BF0D0364B1B6A03F434
:103740004073FB60FB68002B2ED07B685B6803F442
:103750004073FA689A4227D02E4B1B6A23F44073B9
:10376000FB602E4B01221A602C4B00221A60294A62
:10377000FB681362FB6803F00103002B14D0FEF713
:1037800043FA38610AE0FEF73FFA02463B69D31A72
:1037900041F28832934201D9032336E01D4B1B6A64
:1037A00003F00203002BEED01A4B1B6A23F4407285
:1037B0007B685B68174913430B62FB7D012B05D1C6
:1037C000144BDB69134A23F08053D3617B681B6879
:1037D00003F00203002B08D00E4B5B6823F4404239
:1037E0007B689B680B4913434B607B681B6803F045
:1037F0001003002B08D0074B5B6823F480027B6822
:10380000DB68044913434B60002318461837BD4654
:1038100080BD00BF001002400070004040044242E2
:1038200080B582B000AF78607B68002B01D10123A6
:1038300041E07B6893F83D30DBB2002B06D17B681A
:10384000002283F83C207868FDF73CFF7B68022269
:1038500083F83D207B681A687B680433194610465C
:1038600000F0B2FA7B68012283F846207B680122CF
:1038700083F83E207B68012283F83F207B68012289
:1038800083F840207B68012283F841207B68012275
:1038900083F842207B68012283F843207B68012261
:1038A00083F844207B68012283F845207B6801224D
:1038B00083F83D20002318460837BD4680BD80B5FB
:1038C00082B000AF78607B68002B01D1012341E01A
:1038D0007B6893F83D30DBB2002B06D17B68002279
:1038E00083F83C20786800F039F87B68022283F87E
:1038F0003D207B681A687B6804331946104600F047
:1039000063FA7B68012283F846207B68012283F8F2
:103910003E207B68012283F83F207B68012283F8E8
:1039200040207B68012283F841207B68012283F8D4
:1039300042207B68012283F843207B68012283F8C0
:1039400044207B68012283F845207B68012283F8AC
:103950003D20002318460837BD4680BD80B483B0A3
:1039600000AF786000BF0C37BD4680BC70470000D8
:1039700080B584B000AF786039603B68002B09D116
:103980007B6893F83E30DBB2012B14BF0123002388
:10399000DBB222E03B68042B09D17B6893F83F300F
:1039A000DBB2012B14BF01230023DBB215E03B681F
:1039B000082B09D17B6893F84030DBB2012B14BF90
:1039C00001230023DBB208E07B6893F84130DBB2CF
:1039D000012B14BF01230023DBB2002B01D00123F4
:1039E0005EE03B68002B04D17B68022283F83E2016
:1039F00013E03B68042B04D17B68022283F83F204C
:103A00000BE03B68082B04D17B68022283F840203E
:103A100003E07B68022283F841207B681B68012257
:103A20003968184600F050FC7B681B681E4A9342B8
:103A300007D17B681B685A6C7B681B6842F40042A4
:103A40005A647B681B68184A93420ED07B681B68D7
:103A5000B3F1804F09D07B681B68144A934204D0AD
:103A60007B681B68124A934211D17B681B689B6874
:103A700003F00703FB60FB68062B10D07B681B6814
:103A80001A687B681B6842F001021A6007E07B68D5
:103A90001B681A687B681B6842F001021A600023E9
:103AA00018461037BD4680BD002C01400004004080
:103AB0000008004080B586B000AFF860B9607A6059
:103AC0000023FB75FB6893F83C30012B01D10223E6
:103AD000AEE0FB68012283F83C207B680C2B00F2EF
:103AE0009F8001A252F823F01D3B0008213C0008F2
:103AF000213C0008213C00085D3B0008213C0008F7
:103B0000213C0008213C00089F3B0008213C0008A4
:103B1000213C0008213C0008DF3B0008FB681B68D3
:103B2000B968184600F0B2F9FB681B689A69FB682F
:103B30001B6842F008029A61FB681B689A69FB687F
:103B40001B6822F004029A61FB681B689969BB68D4
:103B50001A69FB681B680A439A6164E0FB681B688A
:103B6000B968184600F0F8F9FB681B689A69FB68A9
:103B70001B6842F400629A61FB681B689A69FB68E3
:103B80001B6822F480629A61FB681B689969BB68B4
:103B90001B691A02FB681B680A439A6143E0FB68D1
:103BA0001B68B968184600F041FAFB681B68DA69BF
:103BB000FB681B6842F00802DA61FB681B68DA697F
:103BC000FB681B6822F00402DA61FB681B68D96994
:103BD000BB681A69FB681B680A43DA6123E0FB686B
:103BE0001B68B968184600F08BFAFB681B68DA6935
:103BF000FB681B6842F40062DA61FB681B68DA69E3
:103C0000FB681B6822F48062DA61FB681B68D96973
:103C1000BB681B691A02FB681B680A43DA6102E091
:103C20000123FB7500BFFB68002283F83C20FB7D6D
:103C300018461837BD4680BD80B584B000AF7860A7
:103C400039600023FB737B6893F83C30012B01D172
:103C50000223B4E07B68012283F83C207B680222C7
:103C600083F83D207B681B689B68BB60BB6823F0C2
:103C70007703BB60BB6823F47F43BB607B681B6832
:103C8000BA689A603B681B68B3F5005F3ED0B3F535
:103C9000005F00F28780B3F5805F00F08680B3F5A7
:103CA000805F7FD8702B1AD0702B7BD8602B50D0C0
:103CB000602B77D8502B3CD0502B73D8402B58D04A
:103CC000402B6FD8302B64D0302B6BD8202B60D09A
:103CD000202B67D8002B5CD0102B5AD062E07B6879
:103CE00018683B6899683B685A683B68DB6800F075
:103CF000CCFA7B681B689B68BB60BB6843F07703AA
:103D0000BB607B681B68BA689A604FE07B68186884
:103D10003B6899683B685A683B68DB6800F0B5FA15
:103D20007B681B689A687B681B6842F480429A60D3
:103D30003CE07B6818683B6859683B68DB681A465A
:103D400000F02CFA7B681B685021184600F083FABB
:103D50002CE07B6818683B6859683B68DB681A464A
:103D600000F04AFA7B681B686021184600F073FA7D
:103D70001CE07B6818683B6859683B68DB681A463A
:103D800000F00CFA7B681B684021184600F063FACB
:103D90000CE07B681A683B681B681946104600F007
:103DA0005AFA03E00123FB7300E000BF7B680122A5
:103DB00083F83D207B68002283F83C20FB7B18467B
:103DC0001037BD4680BD000080B485B000AF78607C
:103DD00039607B681B68FB607B68294A93420BD083
:103DE0007B68B3F1804F07D07B68264A934203D0AB
:103DF0007B68254A934208D1FB6823F07003FB607F
:103E00003B685B68FA681343FB607B681C4A93421B
:103E10000BD07B68B3F1804F07D07B68194A93427F
:103E200003D07B68184A934208D1FB6823F440739F
:103E3000FB603B68DB68FA681343FB60FB6823F0B8
:103E400080023B685B691343FB607B68FA681A6019
:103E50003B689A687B68DA623B681A687B689A629A
:103E60007B68074A934203D13B681A697B681A63EF
:103E70007B6801225A6100BF1437BD4680BC704781
:103E8000002C0140000400400008004080B487B0CE
:103E900000AF786039607B681B6A7B617B681B6A56
:103EA00023F001027B681A627B685B683B617B6878
:103EB0009B69FB60FB6823F07003FB60FB6823F0E9
:103EC0000303FB603B681B68FA681343FB607B6974
:103ED00023F002037B613B689B687A6913437B6133
:103EE0007B681C4A93420CD17B6923F008037B61F9
:103EF0003B68DB687A6913437B617B6923F00403C9
:103F00007B617B68134A934211D13B6923F4807330
:103F10003B613B6923F400733B613B685B693A6931
:103F200013433B613B689B693A6913433B617B6880
:103F30003A695A607B68FA689A613B685A687B689C
:103F40005A637B687A691A6200BF1C37BD4680BC21
:103F5000704700BF002C014080B487B000AF78608C
:103F600039607B681B6A7B617B681B6A23F01002E7
:103F70007B681A627B685B683B617B689B69FB605E
:103F8000FB6823F4E043FB60FB6823F44073FB60B1
:103F90003B681B681B02FA681343FB607B6923F0D4
:103FA00020037B613B689B681B017A6913437B613B
:103FB0007B681D4A93420DD17B6923F080037B61AE
:103FC0003B68DB681B017A6913437B617B6923F0E3
:103FD00040037B617B68144A934213D13B6923F40D
:103FE00080633B613B6923F400633B613B685B6931
:103FF0009B003A6913433B613B689B699B003A69AC
:1040000013433B617B683A695A607B68FA689A613E
:104010003B685A687B689A637B687A691A6200BF5A
:104020001C37BD4680BC7047002C014080B487B06F
:1040300000AF786039607B681B6A7B617B681B6AB4
:1040400023F480727B681A627B685B683B617B68E3
:10405000DB69FB60FB6823F07003FB60FB6823F007
:104060000303FB603B681B68FA681343FB607B69D2
:1040700023F400737B613B689B681B027A691343DE
:104080007B617B681D4A93420DD17B6923F40063F9
:104090007B613B68DB681B027A6913437B617B6948
:1040A00023F480637B617B68144A934213D13B699C
:1040B00023F480533B613B6923F400533B613B682D
:1040C0005B691B013A6913433B613B689B691B01B8
:1040D0003A6913433B617B683A695A607B68FA68C6
:1040E000DA613B685A687B68DA637B687A691A62CE
:1040F00000BF1C37BD4680BC704700BF002C01408C
:1041000080B487B000AF786039607B681B6A3B6120
:104110007B681B6A23F480527B681A627B685B6849
:104120007B617B68DB69FB60FB6823F4E043FB6039
:10413000FB6823F44073FB603B681B681B02FA6852
:104140001343FB603B6923F400533B613B689B686E
:104150001B033A6913433B617B680F4A934209D1C1
:104160007B6923F480437B613B685B699B017A69CF
:1041700013437B617B687A695A607B68FA68DA610D
:104180003B685A687B681A647B683A691A6200BFA8
:104190001C37BD4680BC7047002C014080B487B0FE
:1041A00000AFF860B9607A60FB681B6A7B61FB68EE
:1041B0001B6A23F00102FB681A62FB689B693B6182
:1041C0003B6923F0F0033B617B681B013A691343B1
:1041D0003B617B6923F00A037B617A69BB68134307
:1041E0007B61FB683A699A61FB687A691A6200BF71
:1041F0001C37BD4680BC704780B487B000AFF86004
:10420000B9607A60FB681B6A7B61FB681B6A23F0FC
:104210001002FB681A62FB689B693B613B6923F4EF
:1042200070433B617B681B033A6913433B617B69C5
:1042300023F0A0037B61BB681B017A6913437B6198
:10424000FB683A699A61FB687A691A6200BF1C3799
:10425000BD4680BC704780B485B000AF78603960DF
:104260007B689B68FB60FB6823F07003FB603A6827
:10427000FB68134343F00703FB607B68FA689A60AE
:1042800000BF1437BD4680BC704780B487B000AF14
:10429000F860B9607A603B60FB689B687B617B6912
:1042A00023F47F437B613B681A027B681A43BB6837
:1042B00013437A6913437B61FB687A699A6000BF94
:1042C0001C37BD4680BC704780B487B000AFF86033
:1042D000B9607A60BB6803F01F03012202FA03F39E
:1042E0007B61FB681A6A7B69DB431A40FB681A62D0
:1042F000FB681A6ABB6803F01F03796801FA03F3CD
:104300001A43FB681A6200BF1C37BD4680BC704769
:1043100080B485B000AF786039607B6893F83C303A
:10432000012B01D1022346E07B68012283F83C2067
:104330007B68022283F83D207B681B685B68FB601A
:104340007B681B689B68BB60FB6823F07003FB60A5
:104350003B681B68FA681343FB607B681B68FA685C
:104360005A607B681B68164A93420ED07B681B68B4
:10437000B3F1804F09D07B681B68124A934204D086
:104380007B681B68104A93420CD1BB6823F0800302
:10439000BB603B685B68BA681343BB607B681B68A3
:1043A000BA689A607B68012283F83D207B6800220E
:1043B00083F83C20002318461437BD4680BC704764
:1043C000002C0140000400400008004080B485B08B
:1043D00000AF786039600023FB607B6893F83C3065
:1043E000012B01D102233DE07B68012283F83C20B0
:1043F000FB6823F0FF023B68DB681343FB60FB684C
:1044000023F440723B689B681343FB60FB6823F412
:1044100080623B685B681343FB60FB6823F40062C7
:104420003B681B681343FB60FB6823F480523B68C6
:104430001B691343FB60FB6823F400523B685B6914
:104440001343FB60FB6823F480423B68DB69134342
:10445000FB607B681B68FA685A647B68002283F8FB
:104460003C20002318461437BD4680BC704780B5F9
:1044700082B000AF78607B68002B01D1012342E05D
:104480007B6893F84130DBB2002B06D17B680022B9
:1044900083F840207868FDF767F97B68242283F869
:1044A00041207B681B68DA687B681B6822F4005235
:1044B000DA60786800F06EFF7B681B681A697B68B9
:1044C0001B6822F490421A617B681B685A697B68FA
:1044D0001B6822F02A025A617B681B68DA687B68D5
:1044E0001B6842F40052DA607B6800225A647B68E1
:1044F000202283F841207B68202283F842207B68B9
:1045000000225A63002318460837BD4680BD0000CC
:1045100080B58CB000AFF860B9601346FB80FB68D3
:1045200093F84130DBB2202B56D1BB68002B02D070
:10453000FB88002B01D101234FE0BA68FB681A62A7
:10454000FB68FA889A84FB68FA88DA84FB680022A0
:104550005A64FB68212283F84120FB689B6B214A47
:104560009A62FB689B6B204ADA62FB689B6B1F4A6E
:104570001A63FB689B6B00225A6307F10803FB6216
:10458000FB68986BFB6A1968FB681B6804331A4662
:10459000FB88FEF7B3F8FB681B686FF040021A60F7
:1045A000FB681B681433BB61BB6953E8003F7B6148
:1045B0007B6943F08003BB62FB681B681433BA6AF3
:1045C0007A623B62396A7A6A41E80023FB61FB69DF
:1045D000002BE5D1002300E0022318463037BD460A
:1045E00080BD00BF2B4C0008C54C0008494E000898
:1045F00080B58CB000AFF860B9601346FB80FB68F3
:1046000093F84230DBB2202B4AD1BB68002B02D09A
:10461000FB88002B01D1012343E0FB6801221A63D0
:10462000FB6800225A63FB881A46B968F86800F0F4
:1046300055FC034687F82F3097F82F30002B2CD1EC
:10464000FB681B6B012B25D100233B61FB681B68BA
:104650001B683B61FB681B685B683B613B69FB68EF
:104660001B680C33BB61BB6953E8003F7B617B690E
:1046700043F01003BB62FB681B680C33BA6A7A62B2
:104680003B62396A7A6A41E80023FB61FB69002BCF
:10469000E5D102E0012387F82F3097F82F3000E0B2
:1046A000022318463037BD4680BD000080B5BAB041
:1046B00000AF78607B681B681B68C7F8E4307B68D4
:1046C0001B68DB68C7F8E0307B681B685B69C7F86C
:1046D000DC300023C7F8D8300023C7F8D430D7F82F
:1046E000E43003F00F03C7F8D830D7F8D830002BE8
:1046F0000FD1D7F8E43003F02003002B09D0D7F80E
:10470000E03003F02003002B03D0786800F084FD34
:104710005BE2D7F8D830002B00F0DE80D7F8DC3031
:1047200003F00103002B06D1D7F8E03003F49073B7
:10473000002B00F0D180D7F8E43003F00103002B08
:104740000BD0D7F8E03003F48073002B05D07B68E2
:104750005B6C43F001027B685A64D7F8E43003F0E5
:104760000403002B0BD0D7F8DC3003F00103002B3F
:1047700005D07B685B6C43F002027B685A64D7F813
:10478000E43003F00203002B0BD0D7F8DC3003F049
:104790000103002B05D07B685B6C43F004027B684F
:1047A0005A64D7F8E43003F00803002B11D0D7F88F
:1047B000E03003F02003002B05D1D7F8DC3003F004
:1047C0000103002B05D07B685B6C43F008027B681B
:1047D0005A647B685B6C002B00F0F281D7F8E43000
:1047E00003F02003002B08D0D7F8E03003F02003BB
:1047F000002B02D0786800F00FFD7B681B685B69B6
:1048000003F04003002B14BF01230023DBB2C7F8E1
:10481000D4307B685B6C03F00803002B03D1D7F81E
:10482000D430002B4FD0786800F019FC7B681B68EF
:104830005B6903F04003002B41D07B681B68143395
:10484000C7F89C30D7F89C3053E8003FC7F8983041
:10485000D7F8983023F04003C7F8D0307B681B6846
:104860001433D7F8D020C7F8A820C7F8A430D7F859
:10487000A410D7F8A82041E80023C7F8A030D7F843
:10488000A030002BD9D17B68DB6B002B13D07B6869
:10489000DB6B7E4A5A637B68DB6B1846FDF7CAFF09
:1048A0000346002B16D07B68DB6B5B6B7A68D26BA0
:1048B000104698470EE0786800F0AEF90AE0786894
:1048C00000F0AAF906E0786800F0A6F97B680022FB
:1048D0005A6475E100BF73E17B681B6B012B40F0EC
:1048E0004F81D7F8E43003F01003002B00F048812B
:1048F000D7F8E03003F01003002B00F041810023D3
:10490000BB607B681B681B68BB607B681B685B685F
:10491000BB60BB687B681B685B6903F04003002BCE
:1049200000F0B6807B68DB6B1B685B68A7F8BE3065
:10493000B7F8BE30002B00F045817B689B8DB7F83F
:10494000BE209A4280F03E817B68B7F8BE20DA85AF
:104950007B68DB6B9B69202B00F088807B681B6881
:104960000C33C7F88830D7F8883053E8003FC7F8D1
:104970008430D7F8843023F48073C7F8B8307B686C
:104980001B680C33D7F8B820C7F89420C7F89030CC
:10499000D7F89010D7F8942041E80023C7F88C305E
:1049A000D7F88C30002BD9D17B681B6814337B6718
:1049B0007B6F53E8003F3B673B6F23F00103C7F871
:1049C000B4307B681B681433D7F8B420C7F8802054
:1049D000FB67F96FD7F8802041E80023BB67BB6F06
:1049E000002BE1D17B681B6814333B663B6E53E8B8
:1049F000003FFB65FB6D23F04003C7F8B0307B68D8
:104A00001B681433D7F8B020FA66BB66B96EFA6E2D
:104A100041E800237B667B6E002BE3D17B6820227C
:104A200083F842207B6800221A637B681B680C3382
:104A3000FB64FB6C53E8003FBB64BB6C23F01003CA
:104A4000C7F8AC307B681B680C33D7F8AC20BA656C
:104A50007B65796DBA6D41E800233B653B6D002BAA
:104A6000E3D17B68DB6B1846FDF7A8FE7B6802226A
:104A70005A637B689A8D7B68DB8D9BB2D31A9BB29D
:104A800019467868FCF72CFB9CE000BF2351000816
:104A90007B689A8D7B68DB8D9BB2D31AA7F8CE30EA
:104AA0007B68DB8D9BB2002B00F08E80B7F8CE3098
:104AB000002B00F089807B681B680C33BB63BB6BE9
:104AC00053E8003F7B637B6B23F49073C7F8C830D7
:104AD0007B681B680C33D7F8C8207A643B64396C58
:104AE0007A6C41E80023FB63FB6B002BE3D17B680E
:104AF0001B6814337B627B6A53E8003F3B623B6A6E
:104B000023F00103C7F8C4307B681B681433D7F85F
:104B1000C4203A63FB62F96A3A6B41E80023BB6246
:104B2000BB6A002BE3D17B68202283F842207B689C
:104B300000221A637B681B680C333B613B6953E8B6
:104B4000003FFB60FB6823F01003C7F8C0307B68B0
:104B50001B680C33D7F8C020FA61BB61B969FA69E8
:104B600041E800237B617B69002BE3D17B68022253
:104B70005A63B7F8CE3019467868FCF7B1FA23E0EB
:104B8000D7F8E43003F08003002B09D0D7F8E030E9
:104B900003F08003002B03D0786800F0D6FA14E00D
:104BA000D7F8E43003F04003002B0ED0D7F8E03004
:104BB00003F04003002B08D0786800F015FB04E0F8
:104BC00000BF02E000BF00E000BFE837BD4680BD87
:104BD00080B483B000AF786000BF0C37BD4680BCA6
:104BE000704780B483B000AF786000BF0C37BD461B
:104BF00080BC704780B483B000AF786000BF0C37D2
:104C0000BD4680BC704780B483B000AF786000BF01
:104C10000C37BD4680BC704780B483B000AF78606D
:104C200000BF0C37BD4680BC704780B590B000AF68
:104C300078607B685B6AFB637B681B681B6803F0BA
:104C40002003002B37D1FB6B0022DA84FB6B1B683F
:104C500014337B627B6A53E8003F3B623B6A23F07C
:104C60008003BB63FB6B1B681433BA6B3A63FB6254
:104C7000F96A3A6B41E80023BB62BB6A002BE5D1BD
:104C8000FB6B1B680C333B613B6953E8003FFB60E7
:104C9000FB6843F040037B63FB6B1B680C337A6B50
:104CA000FA61BB61B969FA6941E800237B617B69FC
:104CB000002BE5D102E0F86BFFF78AFF00BF403719
:104CC000BD4680BD80B584B000AF78607B685B6A0C
:104CD000FB60F868FFF785FF00BF1037BD4680BD59
:104CE00080B59CB000AF78607B685B6AFB667B68D0
:104CF0001B681B6803F02003002B72D1FB6E00229F
:104D0000DA85FB6E1B680C33FB64FB6C53E8003FD9
:104D1000BB64BB6C23F48073BB66FB6E1B680C33F7
:104D2000BA6EBA657B65796DBA6D41E800233B6563
:104D30003B6D002BE5D1FB6E1B681433BB63BB6B73
:104D400053E8003F7B637B6B23F001037B66FB6EC4
:104D50001B6814337A6E7A643B64396C7A6C41E870
:104D60000023FB63FB6B002BE5D1FB6E1B68143348
:104D70007B627B6A53E8003F3B623B6A23F040035F
:104D80003B66FB6E1B6814333A6E3A63FB62F96A4A
:104D90003A6B41E80023BB62BB6A002BE5D1FB6E96
:104DA000202283F84220FB6E1B6B012B19D1FB6E76
:104DB0001B680C333B613B6953E8003FFB60FB68B9
:104DC00023F01003FB65FB6E1B680C33FA6DFA6170
:104DD000BB61B969FA6941E800237B617B69002BFB
:104DE000E5D1FB6E00225A63FB6E1B6B012B06D1D3
:104DF000FB6E9B8D1946F86EFCF772F902E0F86EB7
:104E0000FFF7F8FE00BF7037BD4680BD80B584B0A7
:104E100000AF78607B685B6AFB60FB6801225A63C5
:104E2000FB681B6B012B08D1FB689B8D5B089BB259
:104E30001946F868FCF754F902E0F868FFF7E3FE5A
:104E400000BF1037BD4680BD80B584B000AF78602C
:104E50000023FB607B685B6ABB60BB681B685B69A7
:104E600003F08003002B14BF01230023DBB2FB609F
:104E7000BB6893F84130DBB2212B08D1FB68002BD3
:104E800005D0BB680022DA84B86800F0C1F8BB68BE
:104E90001B685B6903F04003002B14BF0123002350
:104EA000DBB2FB60BB6893F84230DBB2222B08D147
:104EB000FB68002B05D0BB680022DA85B86800F0DB
:104EC000CEF8BB685B6C43F01002BB685A64B868EC
:104ED000FFF7A2FE00BF1037BD4680BD80B598B079
:104EE00000AFF860B9601346FB80BA68FB689A624D
:104EF000FB68FA889A85FB6800225A64FB682222C4
:104F000083F84220FB68DB6B3E4A9A62FB68DB6BEE
:104F10003D4ADA62FB68DB6B3C4A1A63FB68DB6B79
:104F200000225A6307F10803FB65FB68D86BFB6836
:104F30001B6804331946FB6D1A68FB88FDF7DEFB1E
:104F400000233B61FB681B681B683B61FB681B68B7
:104F50005B683B613B69FB681B69002B19D0FB68F0
:104F60001B680C333B643B6C53E8003FFB63FB6BFB
:104F700043F48073BB65FB681B680C33BA6DFA643D
:104F8000BB64B96CFA6C41E800237B647B6C002B3A
:104F9000E5D1FB681B681433FB62FB6A53E8003FF2
:104FA000BB62BB6A43F001037B65FB681B6814337B
:104FB0007A6DBA637B63796BBA6B41E800233B631C
:104FC0003B6B002BE5D1FB681B681433BB61BB69ED
:104FD00053E8003F7B617B6943F040033B65FB681E
:104FE0001B6814333A6D7A623B62396A7A6A41E827
:104FF0000023FB61FB69002BE5D1002318466037D5
:10500000BD4680BDE14C00080D4E0008494E000829
:1050100080B489B000AF78607B681B680C33FB609C
:10502000FB6853E8003FBB60BB6823F0C003FB6133
:105030007B681B680C33FA69BA617B617969BA696C
:1050400041E800233B613B69002BE5D17B682022CE
:1050500083F8412000BF2437BD4680BC704780B430
:1050600095B000AF78607B681B680C337B637B6B0B
:1050700053E8003F3B633B6B23F49073FB647B6816
:105080001B680C33FA6C3A64FB63F96B3A6C41E8C9
:105090000023BB63BB6B002BE5D17B681B6814331B
:1050A0003B623B6A53E8003FFB61FB6923F001036D
:1050B000BB647B681B681433BA6CFA62BB62B96A62
:1050C000FA6A41E800237B627B6A002BE5D17B68AA
:1050D0001B6B012B19D17B681B680C33FB60FB68D1
:1050E00053E8003FBB60BB6823F010037B647B6820
:1050F0001B680C337A6CBA617B617969BA6941E8E3
:1051000000233B613B69002BE5D17B68202283F8BB
:1051100042207B6800221A6300BF5437BD4680BC22
:10512000704780B584B000AF78607B685B6AFB60D5
:10513000FB680022DA85FB680022DA84F868FFF752
:105140006BFD00BF1037BD4680BD80B485B000AF99
:1051500078607B6893F84130DBB2212B3ED17B68CD
:105160009B68B3F5805F14D17B681B69002B10D15D
:105170007B681B6AFB60FB681B881A467B681B68A0
:10518000C2F308025A607B681B6A9A1C7B681A6229
:1051900008E07B681B6A591C7A6811621A787B6880
:1051A0001B685A607B68DB8C9BB2013B9BB27A68C0
:1051B0001946D184002B0FD17B681B68DA687B68A5
:1051C0001B6822F08002DA607B681B68DA687B6803
:1051D0001B6842F04002DA60002300E00223184618
:1051E0001437BD4680BC704780B582B000AF786090
:1051F0007B681B68DA687B681B6822F04002DA6013
:105200007B68202283F841207868FFF7E1FC0023C7
:1052100018460837BD4680BD80B58CB000AF7860B9
:105220007B6893F84230DBB2222B40F0AE807B6883
:105230009B68B3F5805F17D17B681B69002B13D186
:105240000023FB627B689B6ABB627B681B685B68B0
:105250009BB2C3F308039AB2BB6A1A807B689B6A4D
:105260009A1C7B689A6226E07B689B6AFB6200233B
:10527000BB627B689B68B3F5805F07D07B689B68E7
:10528000002B0AD17B681B69002B06D17B681B6849
:105290005B68DAB2FB6A1A7008E07B681B685B68BF
:1052A000DBB203F07F03DAB2FB6A1A707B689B6A99
:1052B0005A1C7B689A627B68DB8D9BB2013B9BB278
:1052C0007A681946D185002B5DD17B681B68DA6846
:1052D0007B681B6822F02002DA607B681B68DA6852
:1052E0007B681B6822F48072DA607B681B685A69ED
:1052F0007B681B6822F001025A617B68202283F8D8
:1053000042207B6800225A637B681B6B012B35D1DE
:105310007B6800221A637B681B680C337B617B69A6
:1053200053E8003F3B613B6923F010037B627B68DD
:105330001B680C337A6A3A62FB61F9693A6A41E8A0
:105340000023BB61BB69002BE5D17B681B681B6830
:1053500003F01003102B0AD10023FB607B681B684D
:105360001B68FB607B681B685B68FB60FB687B6895
:105370009B8D19467868FBF7B3FE02E07868FFF76B
:1053800039FC002302E0002300E0022318463037F6
:10539000BD4680BD80B584B000AF78607B681B6877
:1053A0001B6923F440517B68DA687B681B680A43F9
:1053B0001A617B689A687B681B691A437B685B6922
:1053C0001343BB607B681B68DB6823F4B05323F096
:1053D0000C037A681268B9680B43D3607B681B685A
:1053E0005B6923F440717B689A697B681B680A4398
:1053F0005A617B681B682C4A934203D1FEF728F957
:10540000F86002E0FEF710F9F860FA6813469B00B6
:1054100013449A001A447B685B689B00B2FBF3F369
:10542000224AA2FB03235B091901FA6813469B0079
:1054300013449A001A447B685B689B00B2FBF3F24A
:105440001A4BA3FB02035B09642000FB03F3D31A8E
:105450001B013233154AA2FB03235B0903F0F0035F
:105460001944FA6813469B0013449A001A447B6857
:105470005B689B00B2FBF3F20C4BA3FB02035B09DE
:10548000642000FB03F3D31A1B013233074AA2FB4B
:1054900003235B0903F00F027B681B680A449A60D0
:1054A00000BF1037BD4680BD003801401F85EB515D
:1054B0000A22002100F07EB8012B2DE9F047864634
:1054C000904601D0242B06D900F054FE1623036029
:1054D0000020BDE8F0870D4635482A4615F8014BF7
:1054E000065D16F00806F8D12D2C2ED101262C7859
:1054F000951C002B57D0102B09D1302C07D12A78BE
:1055000002F0DF02582A49D110236C7802350022BC
:1055100006F1004C0CF1FF3CBCFBF3F9104603FB19
:1055200019CAA4F13007092F14D83C46A34220DD44
:10553000571C07D0814519D301D1A24516DB0122A2
:1055400000FB034015F8014BEBE72B2C04BF2C7834
:10555000951CCEE7A4F14107192F01D8373CE5E7A8
:10556000A4F16107192F04D8573CDFE74FF0FF3251
:10557000E8E7531C08D122236046CEF80030B8F18A
:10558000000FA6D0691E06E006B14042B8F1000F38
:105590009FD0002AF6D1C8F800109AE73024002BDB
:1055A000B5D10823B3E7302CA9D00A23AFE700BF59
:1055B0000783000813460A46014602480068FFF7C1
:1055C0007BBF00BF64000020002B2DE9F0471F4681
:1055D000BBBF03F100431F4600232D2388B01446B0
:1055E000129A109D1370149BDDF84CA023F0200834
:1055F000B8F1460F05D0B8F1450F00D101350223AF
:1056000000E0032307AA049206AACDE902A2CDE98D
:10561000003522463B4600F073FEB8F1470F0646C0
:1056200002D1119BDB0722D5B8F1460F06EB050925
:1056300010D13378302B0AD100220023204639467E
:10564000FBF7B2F918B9C5F10105CAF80050DAF84C
:10565000003099440022002320463946FBF7A4F984
:1056600008B1CDF81C903022079B4B4507D330463C
:10567000079B159A9B1B136008B0BDE8F087591C67
:1056800007911A70F0E70346F7B5002903F8022BDB
:10569000B6BF2D222B224942092942702ADD0DF185
:1056A000070217460A2691FBF6F5944606FB1514E9
:1056B00030340CF8014C0C46632C294602F1FF32C1
:1056C000F1DC3031ACF1020402F8011C2246411C2D
:1056D000BA420AD30DF10902A2EB0C02BC4288BF08
:1056E00000221344181A03B0F0BD12F8015B01F850
:1056F000015FEDE7302330318370C170031DF1E7A6
:105700002DE9F04F91B00C46DDF8688016461F4633
:10571000054600F0E5FC036818460993FAF718FD02
:1057200000230E93D8F800300A90073323F00703C4
:1057300003F1080294F81890D4F800B0C8F80020DB
:10574000D3E900A852464346C4E9122328F0004397
:105750000B934FF0FF3250469C4B0B99FBF756F9D9
:1057600070BB4FF0FF325046984B0B99FBF730F966
:1057700030BB0022002350464146FBF71FF910B111
:105780002D2384F84330924A924BB9F1470F94BFCE
:105790009046984603234FF0000A23612BF0040340
:1057A000236033462146284600970FAA00F0D6F919
:1057B000013040F090804FF0FF3011B0BDE8F08F25
:1057C0005246434650464146FBF720F948B1B8F1EE
:1057D000000FB8BF2D23804AB8BF84F843307F4BF9
:1057E000D3E7636809F0DF015A1C42D106236360E6
:1057F000002206920EAACDE904920DAA4BF4806312
:1058000003920DF13302CDE9013223606368524601
:105810000093284643460B91FFF7D6FE0B9980462E
:1058200047290D9908D1C81C02DB6368994240DD05
:10583000A9F102095FFA89F9B9F1650F1FD84A4643
:10584000013904F150000D91FFF71DFF0E9A8246B9
:105850001318012A236102DC2268D20701D5013323
:1058600023619DF83330002B9BD02D2384F84330E7
:1058700097E74729BCD1002BBAD10123B7E7B9F18B
:10588000660F18D1002963680BDD216113B9226806
:10589000D00702D501330B4423614FF0000AA16504
:1058A000DFE713B92268D20701D50233F4E70123F9
:1058B000F2E74FF067090E9B994205DB23682161EF
:1058C000D807EAD54B1CE7E70029CCBF0122C1F17C
:1058D00002021344E0E723685A0507D423694246CD
:1058E00031462846B84701302BD164E7B9F1650F3E
:1058F00040F2DD80D4E9120100220023FBF754F8C6
:10590000002833D0012331462846354AB8470130B4
:105910003FF451AFDDE90D239A4202DB2368D8073B
:105920000FD5DDE9092331462846B84701303FF459
:1059300042AF4FF0000804F11A090E9B013B4345AA
:1059400009DC23689B0700F10481E0680F9B984203
:10595000B8BF184631E701234A4631462846B847C2
:1059600001303FF428AF08F10108E6E70D9B002B5A
:1059700038DC012331462846194AB84701303FF444
:105980001AAFDDE90D32134302D12368D907D8D508
:10599000DDE9092331462846B84701303FF40BAF13
:1059A0004FF0000904F11A0A0D9B5B424B4501DCE4
:1059B0000E9B94E70123524631462846B8470130F2
:1059C0003FF4F9AE09F10109EEE700BFFFFFEF7FF9
:1059D000078400080B8400080F8400081384000863
:1059E000178400080E9AA36D9A42A8BF1A46002A8F
:1059F000914637DC4FF0000B29EAE97904F11A02ED
:105A0000D4F858A0AAEB09035B4533DCDDE90D238C
:105A10009A423BDB2368DA0738D4DDE90D32A2EB8A
:105A20000309A2EB0A029145A8BF9146B9F1000F04
:105A300034DC4FF0000829EAE97904F11A0ADDE9BB
:105A40000D239B1AA3EB090343457FF77AAF01238C
:105A5000524631462846B84701303FF4ACAE08F113
:105A60000108ECE71346314642462846B847013064
:105A7000C0D1A0E60123314628460B92B847013039
:105A80003FF499AE0B9A0BF1010BB9E73146DDE912
:105A900009232846B8470130BFD18CE64B46314632
:105AA000284608EB0A02B8470130C2D183E60E9AB5
:105AB000012A01DCDB0739D501234246314628465D
:105AC000B84701303FF477AEDDE909233146284677
:105AD000B84701303FF46FAED4E912010022002331
